:100000000C9470000C9400000C9400000C94000000
:100010000C9400000C9400000C9400000C94000060
:100020000C9400000C9400000C9400000C94000050
:100030000C9400000C9400000C9400000C94000040
:100040000C9400000C9400000C9400000C94000030
:100050000C9400000C9400000C9400000C94000020
:100060000C9400000C9400000C9400000C94000010
:100070000C9400000C9400000C9400000C94000000
:100080000C9400000C9400000C9400001027E8036E
:1000900064000A0001000010000110000100686502
:1000A0006C6C6F20776F726C640054494D453A2038
:1000B000253032753A253032753A253032750020B8
:1000C0002020202020202020202020202020200050
:1000D00080C011000005BF0002001105D000000023
:1000E000F894EE27ECBBF1E0F5BFE5BFE0936C00C0
:1000F0008DE0A2E0BB27ED938A95E9F780E090E1DF
:10010000A0E0B1E0ED930197E9F7E2EDF0E0859131
:100110009591009761F0A591B59105901590BF015B
:10012000F00105900D920197E1F7FB01F0CF8BBF35
:10013000EFEFEDBFE0E1EEBFC0E0D5E00C94A00032
:100140006097E0E0EABBEBBBE7BBE8BBE4BBE5BB29
:10015000E1BBE2BBE2B9E3B9E0936100E093620086
:10016000E0936400E0936500E0BFE3BFE2BFE1BF5E
:10017000EFBDEEBDEDBDECBDE7BDE6BDEBBDEABD3F
:10018000E9BDE8BDE0937900E0937800E5BDE4BD0A
:10019000E3BDE0938B00E0938A00E0938900E09355
:1001A0008800E0938100E0938000E0938700E09373
:1001B0008600E0938500E0938400E0938300E09361
:1001C0008200E7BFE0937D00E0936A00EABFE9BFE9
:1001D000EAB9E0939A00E0E8E8B9E0E0E0BDE6B90A
:1001E000EDB9E09374000E946204E3E0EA93E1E079
:1001F000EA93A0E03BD0A4E10FD1E6E0EA93EBE381
:10020000EA93A7E36FD0C5D0AEE9B0E0F2D0E5E065
:10021000F0E0FA93EA93E4E0F0E0FA93EA93A7E0DF
:10022000B0E03DD0FE01FA93EA93EAEAF0E0FA93F7
:10023000EA93E52D0E941304E42D0E941304E72D98
:100240000E9413048CE00E94AF036096A2D0E0E00D
:10025000EA93A0E091D0A0E0B5E0BCD0E0E0EA9362
:10026000A0E08AD0DE01B6D0D2CFFFCFAA93EA8138
:10027000E370EA83E981E03019F0EA81E061EA8322
:10028000E881E03019F0EA81E068EA830E9419040D
:10029000A7E00E949B04AA810E941E04BBC0BA93DF
:1002A000AA930E941904A0E00E941E040E94670401
:1002B000A1ED0E949B040E942204A881B981EC93C5
:1002C0000E942204AA81BB81EC93A0E00E948004DA
:1002D000AE2F0E94E303AC81BD81EC930E947604B3
:1002E00026960895AA930E941904A0E00E949B04F8
:1002F000A8810E94F003AE2F0E949B04A9810E9456
:10030000F003AE2F0E949B04AA810E94F003AE2F3F
:100310000E941E047FC0AA93E881E07111F0DB9A6D
:1003200001C0DB98E881E07211F0DC9A01C0DC9832
:10033000E881E07411F0DD9A01C0DD98E881E07891
:1003400011F0DE9A01C0DE988DE08A95F1F7DA9A15
:100350008DE08A95F1F7DA988DE08A95F1F789C0FA
:10036000AA93A881D8DFE881E295E883A881D3DF4A
:1003700085E88A95F1F77DC0AA93E881F0E0EF5E09
:10038000FA4FE081A981AE0FEBDF69809880229659
:100390000895A2E00E942804ACE0E2DFA1E00E9400
:1003A0002804E0E09E2E6E2E0895AA93A881AA301C
:1003B00011F0681448F0E0E0EA939394A92DDCDF93
:1003C000A881AA3009F455C06394D89AA881C8DFDF
:1003D000D8984FC0BA93AA931A93A981BA81ED9184
:1003E000A983BA831E2FE03019F0A12FDEDFF5CFED
:1003F00010C0BA93AA931A93E981FA813196E983DE
:10040000FA833197E4911E2FE03019F0A12FCDDF50
:10041000F3CF188123960895AA93D39AD49AD59AA4
:10042000D69AD29AD09AD19ADA98D898D9988880C0
:10043000E881E058E0931305E881E054E093140567
:10044000A4E1B0E00E94B3040E942E040E942E0496
:100450000E942E04A0E25FDF88EC90E00197F1F7A4
:10046000A8E27EDFA4E07CDFA5E87ADFA6E078DF03
:1004700090DF21960895BA93AA931A930A93AA81BA
:10048000BB8112960E94C504309759F1AA81BB81A5
:1004900014960E94C5048F01309761F00230E0E0AD
:1004A0001E0798F0F80131978F01AA81BB8114963D
:1004B000ED93FC93AA81BB811296ED91FD9131964B
:1004C000FE93EE933197AC81A083AA81BB810E94F9
:1004D000C504FF232AF0ED91FD913196FE93EE9332
:1004E00006C0AA81BB81EFEFFFEFED93FC9319816A
:1004F000088125960895BA93AA9326970E94D2045C
:1005000010E0AC85BD85E0E0F0E0ED93FC93EA8976
:10051000FB893196EA8BFB8B3197E4912E2FE030EB
:1005200009F415C1E12FE03039F4253211F411E05E
:1005300002C00E9436040AC1E130A9F4253219F440
:100540000E94360402C112E040E000E02D3211F4B6
:1005500001E0FCC02B3211F44BE2F8C0203211F460
:1005600040E2F4C002C0E23039F450E013E020333E
:1005700011F40068EBC003C0E33009F0E7C020339A
:1005800010F02A3308F007C0AAE05A9F502DE22F3E
:10059000E0535E0FDBC0E22FE33649F40E943D04D6
:1005A000E889F989A481AA930E944304CEC0E33765
:1005B00041F40E943D040E9449040E94FA031E2F48
:1005C0000AC0E03761F40E943D040E9449040E9481
:1005D00006041E2F086002600F7730E034C0E43656
:1005E00011F0E93611F4046002C0E53731F4ECE8AB
:1005F000F0E0EE83FF8315E00CC0E83511F40860ED
:1006000003C0E83709F0A1C0E6E9F0E0EE83FF831C
:1006100014E002FF14C00E943D040E945304AB8505
:10062000AA233AF4EA85FB850E94C104EA87FB8786
:100630004DE2403011F01F5F01C00B7F04C00E94EB
:100640003D040E94530400FD11C0151778F407FF04
:1006500008C002FF04C00B7F242F115001C020E30B
:1006600001C020E20E9436045150EFCF312F01FF2C
:1006700017C03030A1F003FF06C0EE81FF81259145
:10068000EE83FF8305C0AE81BF812D91AE83BF8312
:100690000E943604503009F051503150EACF4BC01F
:1006A00020E3EE81FF810E94C904E887F987EE818B
:1006B000FF813296EE83FF83E885F985AA85BB85A5
:1006C000AE17BF0750F02F5FA885B985EA85FB8577
:1006D000EA1BFB0BEA87FB87EFCF2A3328F003FFE7
:1006E00002C0295F01C0295D04FD1AC0213320F436
:1006F000A885B985119709F409C0531710F000FFB8
:1007000001C013C020E207FF0BC020E3006102FF1D
:1007100007C00B7F4A930E944304503009F05150A8
:100720000E943604503009F051503150A885B985E7
:10073000129708F0B5CF00FF08C0503031F051508B
:10074000E0E2EA930E944304F8CF10E0E0CEAC85EB
:10075000BD850E94C5040E94D90464960895FF9245
:10076000F82E26970E94D4040E945B04309719F457
:10077000EFEFFFEF23C0DE0116960E94BD048D014E
:100780000E945B04EE83FF83E0E0E887E987DE01F7
:100790001A960E94BD040E94C504FA93EA931A9324
:1007A0000A93EBE3F2E0FA93EA93DE011A96A3DEF2
:1007B0009F01AE81BF81E0E0EC93F9010E94DB0470
:1007C0002A96FF900895AA93E881E295EF70AE2FE4
:1007D000AA0FAA0FEA0FEE0FA991AF70EA0F0895C2
:1007E000AA93A991EE27AA5012F0E05FFCCFA65F72
:1007F000EA0F0895BA93AA93A991B991EE27FF271A
:100800006D91662311F03196FBCF0895BA93AA93A8
:10081000AA27BB27E991F9910590002011F01196C4
:10082000FBCFFD010895FF27662777270E94CD049F
:1008300008950E946704A0ED0C949B040E949B0401
:100840000C947604A1E00E948004AE2F0C94E30384
:100850000E94B001A3E0B0E00C94B304A0E30E94B6
:100860008B0188EC90E00197F1F708952A93AD850C
:10087000BE85EF85F88909950895E889F989349747
:10088000E88BF98B0895AD85BE85EF85F8890995CC
:100890000895A889B98914960E94C504EE83FF8340
:1008A000AE81BF810895A889B98914960E94C504B4
:1008B000EA87FB870895DE011C960E94BD040E9412
:1008C000C504089590989198889A899815C0899838
:1008D0008898EE270000819B0895809B089504D09E
:1008E000899A02D0889AE1E06DE007C0899A889AD7
:1008F00003D08898F9DF89986BE16A95F1F708953C
:1009000078E08898F1DF809BFECFEEDF88948199B4
:100910000894889AF1DFEE1F7A9599F77A2F77235A
:1009200011F4899801C0899ADFDF8898E5DF889AF9
:10093000DBDF8998D9CF78E0AA0F10F4899801C03D
:10094000899ADADF8898D0DF809BFECFCDDF889A46
:100950007A9591F78998C8DF8898CEDFE1E0819990
:10096000EE27889AC1CF109639F080ED97E0019775
:10097000F1F7A8951197C9F708950024AF0DB01DA0
:100980000895F195E195F0400895ED91FC9111974E
:1009900008950590F491E02D08957A936A93FA935F
:1009A000EA9308955A934A933A932A931A930A938F
:1009B00008955D814C813B812A81198108810895C8
:00000001FF
