:040000000C945F00FD
:100004000C9400000C9400000C9400000C9400006C
:100014000C9400000C9400000C9400000C9400005C
:100024000C9400000C9400000C9400000C9400004C
:100034000C9400000C9400000C9400000C9400003C
:100044000C9400000C9400000C9400000C9400002C
:100054000C9400000C9400000C9400000C9400001C
:100064000C9400000C9400000C9400000C9400000C
:100074000C9400000C9400000C9400000C940000FC
:100084000C9400000C9400001027E80364000A009C
:100094000100001000011000010054494D453A20B0
:1000A400253032753A253032753A253032750000E4
:1000B40080C002000005B4000000F894EE27ECBBF9
:1000C400F1E0F5BFE5BFE0936C008DE0A2E0BB2753
:1000D400ED938A95E9F780E090E1A0E0B1E0ED933B
:1000E4000197E9F7E6EBF0E085919591009761F0CF
:1000F400A591B59105901590BF01F00105900D9261
:100104000197E1F7FB01F0CF8BBFEFEFEDBFE0E12B
:10011400EEBFC0E0D5E00C948F006097E0E0EABB4E
:10012400EBBBE7BBE8BBE4BBE5BBE1BBE2BBE2B9CD
:10013400E3B9E0936100E0936200E0936400E0932C
:100144006500E0BFE3BFE2BFE1BFEFBDEEBDEDBDC3
:10015400ECBDE7BDE6BDEBBDEABDE9BDE8BDE0939E
:100164007900E0937800E5BDE4BDE3BDE0938B0046
:10017400E0938A00E0938900E0938800E093810093
:10018400E0938000E0938700E0938600E09385008D
:10019400E0938400E0938300E0938200E7BFE09360
:1001A4007D00E0936A00EABFE9BFEAB9E0939A00F0
:1001B400E0E8E8B9E0E0E0BDE6B9EDB9E093740049
:1001C4000E943C04E3E0EA93E1E0EA93A0E00E94A9
:1001D400C902A4E10E948E03E6E0EA93EBE3EA930A
:1001E400A7E30E940503E5E0F0E0FA93EA93E4E074
:1001F400F0E0FA93EA93A7E0B0E00E94E202FE0185
:10020400FA93EA93EEE9F0E0FA93EA93E52D0E947B
:10021400ED03E42D0E94ED03E72D0E94ED038CE035
:100224000E94950260960E945C03E0E0EA93A0E0DD
:100234000E944F03DE010E947D03D5CFFFCFBA9306
:10024400AA931A930A93AA81BB8112960E949F04CF
:10025400309759F1AA81BB8114960E949F048F01A3
:10026400309761F00230E0E01E0798F0F801319712
:100274008F01AA81BB811496ED93FC93AA81BB8163
:100284001296ED91FD913196FE93EE933197AC81E8
:10029400A083AA81BB810E949F04FF232AF0ED91D1
:1002A400FD913196FE93EE9306C0AA81BB81EFEFD8
:1002B400FFEFED93FC931981088125960895BA9375
:1002C400AA9326970E94AC0410E0AC85BD85E0E0BB
:1002D400F0E0ED93FC93EA89FB893196EA8BFB8B82
:1002E4003197E4912E2FE03009F415C1E12FE0306D
:1002F40039F4253211F411E002C00E94F3030AC15B
:10030400E130A9F4253219F40E94F30302C112E08A
:1003140040E000E02D3211F401E0FCC02B3211F476
:100324004BE2F8C0203211F440E2F4C002C0E230E3
:1003340039F450E013E0203311F40068EBC003C03B
:10034400E33009F0E7C0203310F02A3308F007C087
:10035400AAE05A9F502DE22FE0535E0FDBC0E22F3C
:10036400E33649F40E94FA03E889F989A481AA933F
:100374000E940004CEC0E33741F40E94FA030E94B5
:1003840006040E94BD031E2F0AC0E03761F40E94D8
:10039400FA030E9406040E94C9031E2F086002602B
:1003A4000F7730E034C0E43611F0E93611F404601C
:1003B40002C0E53731F4ECE8F0E0EE83FF8315E0AA
:1003C4000CC0E83511F4086003C0E83709F0A1C097
:1003D400E6E9F0E0EE83FF8314E002FF14C00E941C
:1003E400FA030E941004AB85AA233AF4EA85FB853C
:1003F4000E949B04EA87FB874DE2403011F01F5FA7
:1004040001C00B7F04C00E94FA030E94100400FD87
:1004140011C0151778F407FF08C002FF04C00B7F52
:10042400242F115001C020E301C020E20E94F303F5
:100434005150EFCF312F01FF17C03030A1F003FF2F
:1004440006C0EE81FF812591EE83FF8305C0AE8156
:10045400BF812D91AE83BF830E94F303503009F016
:1004640051503150EACF4BC020E3EE81FF810E940E
:10047400A304E887F987EE81FF813296EE83FF8338
:10048400E885F985AA85BB85AE17BF0750F02F5FB5
:10049400A885B985EA85FB85EA1BFB0BEA87FB8700
:1004A400EFCF2A3328F003FF02C0295F01C0295D82
:1004B40004FD1AC0213320F4A885B985119709F4E5
:1004C40009C0531710F000FF01C013C020E207FF5A
:1004D4000BC020E3006102FF07C00B7F4A930E9418
:1004E4000004503009F051500E94F303503009F0D9
:1004F40051503150A885B985129708F0B5CF00FF47
:1005040008C0503031F05150E0E2EA930E940004F8
:10051400F8CF10E0E0CEAC85BD850E949F040E9418
:10052400B30464960895FF92F82E26970E94AE04B1
:100534000E941804309719F4EFEFFFEF23C0DE0197
:1005440016960E9497048D010E941804EE83FF837F
:10055400E0E0E887E987DE011A960E9497040E948A
:100564009F04FA93EA931A930A93E1E2F1E0FA936F
:10057400EA93DE011A96A3DE9F01AE81BF81E0E01B
:10058400EC93F9010E94B5042A96FF900895AA936A
:10059400EA81E370EA83E981E03019F0EA81E061FD
:1005A400EA83E881E03019F0EA81E068EA830E9496
:1005B4001F04A7E00E947504AA810E942404AAC013
:1005C400BA93AA930E941F04A0E00E9424040E94EC
:1005D4004104A1ED0E9475040E942804A881B981F8
:1005E400EC930E942804AA81BB81EC93A0E00E94B2
:1005F4005A04AE2F0E94D603AC81BD81EC930E94B5
:10060400500426960895AA930E941F04A0E00E9415
:100614007504A8810E94E303AE2F0E947504A9818A
:100624000E94E303AE2F0E947504AA810E94E30393
:10063400AE2F0E9424046EC0AA93E881E07111F0E9
:10064400DB9A01C0DB98E881E07211F0DC9A01C00A
:10065400DC98E881E07411F0DD9A01C0DD98E8814E
:10066400E07811F0DE9A01C0DE988DE08A95F1F70A
:10067400DA9A8DE08A95F1F7DA988DE08A95F1F7A8
:1006840078C0AA93A881D8DFE881E295E883A8819D
:10069400D3DF85E88A95F1F76CC0AA93E881F0E08E
:1006A400E050FB4FE081A981AE0FEBDF69809880B9
:1006B40022960895A2E00E942E04ACE0E2DFA1E0BD
:1006C4000E942E04E0E09E2E6E2E0895AA93A88127
:1006D400AA3011F0681448F0E0E0EA939394A92D4D
:1006E400DCDFA881AA3009F444C06394D89AA881B5
:1006F400C8DFD8983EC0BA93AA931A93A981BA8145
:10070400ED91A983BA831E2FE03019F0A12FDEDF0B
:10071400F5CF188123960895AA93D39AD49AD59A9B
:10072400D69AD29AD09AD19ADA98D898D9988880B9
:10073400E881E058E0930205E881E054E093030582
:10074400A4E1B0E00E948D040E9434040E943404A9
:100754000E943404A0E270DF88EC90E00197F1F786
:10076400A8E28FDFA4E08DDFA5E88BDFA6E089DFB8
:10077400A1DF21960895BA93AA93A991B991EE277E
:10078400FF276D91662311F03196FBCF0895BA933C
:10079400AA93AA27BB27E991F9910590002011F0AB
:1007A4001196FBCFFD010895AA93E881E295EF70BD
:1007B400AE2FAA0FAA0FEA0FEE0FA991AF70EA0F9E
:1007C4000895AA93A991EE27AA5012F0E05FFCCFF6
:1007D400A65FEA0F0895FF27662777270E94A704DC
:1007E40008952A93AD85BE85EF85F8890995089506
:1007F400E889F9893497E88BF98B0895AD85BE852E
:10080400EF85F88909950895A889B98914960E94F5
:100814009F04EE83FF83AE81BF810895A889B989BF
:1008240014960E949F04EA87FB870895DE011C96B4
:100834000E9497040E949F0408950E944104A0ED21
:100844000C9475040E9475040C945004A1E00E9459
:100854005A04AE2F0C94D6030E944303A3E0B0E0E5
:100864000C948D04A0E30E941E0388EC90E0019791
:10087400F1F7089590989198889A899815C0899865
:100884008898EE270000819B0895809B089504D0EA
:10089400899A02D0889AE1E06DE007C0899A889A23
:1008A40003D08898F9DF89986BE16A95F1F7089588
:1008B40078E08898F1DF809BFECFEEDF8894819901
:1008C4000894889AF1DFEE1F7A9599F77A2F7723A7
:1008D40011F4899801C0899ADFDF8898E5DF889A46
:1008E400DBDF8998D9CF78E0AA0F10F4899801C08A
:1008F400899ADADF8898D0DF809BFECFCDDF889A93
:100904007A9591F78998C8DF8898CEDFE1E08199DC
:10091400EE27889AC1CF109639F080ED97E00197C1
:10092400F1F7A8951197C9F708950024AF0DB01DEC
:100934000895F195E195F0400895ED91FC9111979A
:1009440008950590F491E02D08957A936A93FA93AB
:10095400EA9308955A934A933A932A931A930A93DB
:1009640008955D814C813B812A8119810881089514
:00000001FF
