:100000000C9446000C9400000C9400000C9400002A
:100010000C9400000C9400000C9400000C94000060
:100020000C9400000C9400000C9400000C94000050
:100030000C9400000C9400000C9400000C94000040
:100040000C9400000C9400000C9400000C94000030
:100050000C9400000C9400000C9400000C94000020
:100060000C9400000C9400000C9400000C94000010
:100070000C9400000C9400000C9400000C94000000
:100080000C9400000C9400000C940000F894EE27EF
:10009000ECBBF1E0F5BFE5BFE0936C008DE0A2E0C2
:1000A000BB27ED938A95E9F780E090E1A0E0B1E00D
:1000B000ED930197E9F78BBFEFEFEDBFE0E1EEBF06
:1000C000C0E0D5E00C94CB001A930A9300E010E056
:1000D0000A30E0E01E070CF05BC0002E012A39F464
:1000E000E1E8E0936200E9EFE2BBEFE7EBBBE1E0C0
:1000F000F0E0E017F10711F4E7E855D0E2E0F0E0B6
:10010000E017F10721F4E5E855D0EFEFEBBBE3E0B2
:10011000F0E0E017F10711F4E5E851D0E4E0F0E099
:10012000E017F10739F4E3E8E0936200E7EFE2BBA0
:10013000EFE7EBBBE5E0F0E0E017F10711F4E1EAEF
:100140003ED0E6E0F0E0E017F10721F4E1EA32D03A
:10015000EFE7EBBBE7E0F0E0E017F10711F4E5E8CB
:1001600022D0E8E0F0E0E017F10721F4E1E822D046
:10017000EFE7EBBBE9E0F0E0E017F10711F4E1E8AD
:100180001ED0A4EFB1E00E94E6000F5F1F4FA0CF8A
:10019000099119910895EFEFE0936100E1BBEABB8B
:1001A00093DFFECFFFCFE0936200EFEFE2BBEFE71C
:1001B000EBBB0895E0936200E1EFE2BB0895E093AA
:1001C0006200E5EFE2BBEFE7EBBB0895109639F074
:1001D00080ED97E00197F1F7A8951197C9F7089579
:00000001FF
