:0E0000000C949F000C9400000C9400000C94D3
:10000E0000000C9400000C9400000C9400000C9462
:10001E0000000C9400000C9400000C9400000C9452
:10002E0000000C9400000C9400000C9400000C9442
:10003E0000000C94CF000C9400000C9400000C9463
:10004E0000000C9400000C9400000C9400000C9422
:10005E0000000C9400000C9400000C9400000C9412
:10006E0000000C9400000C9400000C9400000C9402
:10007E0000000C9400000C9400000C94000010275B
:10008E00E80364000A0001000010000110000100E6
:10009E000005040508050C051005140518051C05BA
:1000AE004572720053756E004D6F6E00547565008B
:1000BE005765640054687500467269005361740098
:1000CE00253032753A253032753A25303275005466
:1000DE00696D653A00253032752F253032752F3215
:1000EE003025303275202573000080C004000005D5
:1000FE00AE0004000405B20004000805B6000400BA
:10010E000C05BA0004001005BE0004001405C20060
:10011E0004001805C60004001C05CA0010002705BF
:10012E009E0006002005DD0002003705F8000000E5
:10013E00F894EE27ECBBF1E0F5BFE5BFE0936C0061
:10014E008DE0A2E0BB27ED938A95E9F780E090E180
:10015E00A0E0B1E0ED930197E9F7EAEFF0E08591C9
:10016E009591009761F0A591B59105901590BF01FD
:10017E00F00105900D920197E1F7FB01F0CF8BBFD7
:10018E00EFEFEDBFE0E1EEBFC0E0D5E00C9406016D
:10019E00EA93FA93EFB7EA93E6E6E2BFF3013196FC
:1001AE003F01E8EEF3E0E615F70519F4E1E0F0E0C3
:1001BE002F01E0EDF7E0E615F70521F4662477242C
:1001CE0044245524E991EFBFF991E9911895AA932A
:1001DE00A881A13010F0A83008F00CC0E881A7E289
:1001EE00B5E0F0E0EE0FFF1FAE0FBF1F0E946405DB
:1001FE000C944802E0912705F091280542C1A09782
:10020E001FE10E940105A0E10ED1E3E0EA93E1E0D7
:10021E00EA93A0E00E94F203E7E1EA93EBE3EA93AC
:10022E00AAE30E942004E4E0EA93EFE1EA93ECE013
:10023E00EA93A8E10E944B047894E9E0F0E0FA9387
:10024E00EA93E8E0F0E0FA93EA93ABE0B0E00E94C4
:10025E000904E6E2F5E0FA93EA93EAE0F0E0FA93B5
:10026E00EA93EDE0F0E0FA93EA93ACE0B0E00E949E
:10027E0032041A1569F01A2DE0912605EF5FE0930E
:10028E002605A0912605A83018F0E1E0E09326059A
:10029E00FE017096FA93EA93EEECF0E0FA93EA938D
:1002AE00E92D0E949004E82D0E949004EB2D0E94EF
:1002BE0090048CE00E94BE03609677D0E0E0EA9353
:1002CE00A0E062D0A0E2B5E09ED0E6E0EA93A0E026
:1002DE005BD0DE01509697D0FE01FA93EA93E3EEDF
:1002EE00F0E0FA93EA93EA2D0E949004ED2D0E941D
:1002FE009004EC2D0E949004A091260568DF6627DD
:10030E0077270E946C0580E10E94BE036496E0E0B0
:10031E00EA93A1E039D0DE0176D0A4EFB1E00E94DD
:10032E0052058BCFFFCFAA93E881E07111F0C39AEB
:10033E0001C0C398E881E07211F0C49A01C0C4985C
:10034E00E881E07411F0C59A01C0C598E881E078A3
:10035E0011F0C69A01C0C6988DE08A95F1F7C29A3F
:10036E008DE08A95F1F7C2988DE08A95F1F789C0F4
:10037E00AA93A881D8DFE881E295E883A881D3DF2C
:10038E0085E88A95F1F77DC0AA93E881F0E0E95CF3
:10039E00FA4FE081A981AE0FEBDFE981E0933B05D7
:1003AE00E881E0933C0522960895A2E00E9496040F
:1003BE00ACE0DEDFA1E00E949604E0E0E0933C05B5
:1003CE00E0933B050895AA93A881AA3031F0E091FD
:1003DE003D05A0913B05AE1760F0E0E0EA93A091D9
:1003EE003C05AF5FA0933C05CFDFA881AA3009F48E
:1003FE0048C0E0913B05EF5FE0933B05C09AA881B2
:10040E00B7DFC0983EC0BA93AA931A93A981BA8156
:10041E00ED91A983BA831E2FE03019F0A12FD3DFFF
:10042E00F5CF188116C2AA93BB9ABC9ABD9ABE9AF2
:10043E00BA9AB89AB99AC298C098C198E881E093CE
:10044E003D05E058E0933905E881E054E0933A0524
:10045E00A4E1B0E00E9452050E949C040E949C04FC
:10046E000E949C04A0E25FDF88EC90E00197F1F718
:10047E00A8E27EDFA4E07CDFA5E87ADFA6E078DFE5
:10048E0094DF21960895BA93AA931A930A93AA8198
:10049E00BB8112960E946405309759F1AA81BB81E7
:1004AE0014960E9464058F01309761F00230E0E0EF
:1004BE001E0798F0F80131978F01AA81BB8114961F
:1004CE00ED93FC93AA81BB811296ED91FD9131962D
:1004DE00FE93EE933197AC81A083AA81BB810E94DB
:1004EE006405FF232AF0ED91FD913196FE93EE9374
:1004FE0006C0AA81BB81EFEFFFEFED93FC9319814C
:10050E00088125960895BA93AA9326970E9471059D
:10051E0010E0AC85BD85E0E0F0E0ED93FC93EA8958
:10052E00FB893196EA8BFB8B3197E4912E2FE030CD
:10053E0009F415C1E12FE03039F4253211F411E040
:10054E0002C00E94A4040AC1E130A9F4253219F4B4
:10055E000E94A40402C112E040E000E02D3211F42A
:10056E0001E0FCC02B3211F44BE2F8C0203211F442
:10057E0040E2F4C002C0E23039F450E013E0203320
:10058E0011F40068EBC003C0E33009F0E7C020337C
:10059E0010F02A3308F007C0AAE05A9F502DE22F20
:1005AE00E0535E0FDBC0E22FE33649F40E94AB044A
:1005BE00E889F989A481AA930E94B104CEC0E337D9
:1005CE0041F40E94AB040E94B7040E9460041E2FE7
:1005DE000AC0E03761F40E94AB040E94B7040E9487
:1005EE006C041E2F086002600F7730E034C0E436D2
:1005FE0011F0E93611F4046002C0E53731F4ECE88D
:10060E00F0E0EE83FF8315E00CC0E83511F40860CE
:10061E0003C0E83709F0A1C0E6E9F0E0EE83FF83FE
:10062E0014E002FF14C00E94AB040E94C104AB850B
:10063E00AA233AF4EA85FB850E946005EA87FB87C8
:10064E004DE2403011F01F5F01C00B7F04C00E94CD
:10065E00AB040E94C10400FD11C0151778F407FF0A
:10066E0008C002FF04C00B7F242F115001C020E3ED
:10067E0001C020E20E94A4045150EFCF312F01FFA0
:10068E0017C03030A1F003FF06C0EE81FF81259127
:10069E00EE83FF8305C0AE81BF812D91AE83BF83F4
:1006AE000E94A404503009F051503150EACF4BC093
:1006BE0020E3EE81FF810E946805E887F987EE81CD
:1006CE00FF813296EE83FF83E885F985AA85BB8587
:1006DE00AE17BF0750F02F5FA885B985EA85FB8559
:1006EE00EA1BFB0BEA87FB87EFCF2A3328F003FFC9
:1006FE0002C0295F01C0295D04FD1AC0213320F418
:10070E00A885B985119709F409C0531710F000FF99
:10071E0001C013C020E207FF0BC020E3006102FFFF
:10072E0007C00B7F4A930E94B104503009F051501C
:10073E000E94A404503009F051503150A885B9855B
:10074E00129708F0B5CF00FF08C0503031F051506D
:10075E00E0E2EA930E94B104F8CF10E0E0CEAC855F
:10076E00BD850E9464050E94780564960895FF92E7
:10077E00F82E26970E9473050E94C904309719F42B
:10078E00EFEFFFEF23C0DE0116960E945C058D0190
:10079E000E94C904EE83FF83E0E0E887E987DE016B
:1007AE001A960E945C050E946405FA93EA931A93C6
:1007BE000A93EAE4F2E0FA93EA93DE011A96A3DED4
:1007CE009F01AE81BF81E0E0EC93F9010E947A05B2
:1007DE002A96FF900895AA93EA81E370EA83E9814D
:1007EE00E03019F0EA81E061EA83E881E03019F047
:1007FE00EA81E068EA830E94D004A7E00E943A05ED
:10080E00AA8123C0BA93AA930E94D004A0E00E94AA
:10081E00D5040E94E1040E94E8040E94EE04AE2F6B
:10082E000E947904AC81BD81EC930E941505269639
:10083E000895AA930E94D004A0E00E94F404A98116
:10084E000E948604AE2F0E94FB040E943A050E946D
:10085E00150523960895BA93AA930E94D004A3E097
:10086E000E94D504AE81BF81EC930E94E804AC8156
:10087E00BD81EC930E94E8040E94EE040E94E10404
:10088E000E94150528960895AA930E94D004A3E00D
:10089E000E943A05AB810E94FB040E943A05A98191
:1008AE000E948604AE2F0E94F4040E941505249621
:1008BE000895BA93AA93A991B991EE27FF276D9146
:1008CE00662311F03196FBCF0895BA93AA93AA2707
:1008DE00BB27E991F9910590002011F01196FBCFFD
:1008EE00FD010895AA93E881E295EF70AE2FAA0F4D
:1008FE00AA0FEA0FEE0FA991AF70EA0F0895AA930F
:10090E00A991EE27AA5012F0E05FFCCFA65FEA0F86
:10091E000895FF27662777270E946C0508950E9489
:10092E00BF01A3E0B0E00C945205A0E30E949A012F
:10093E0088EC90E00197F1F708952A93AD85BE8576
:10094E00EF85F88909950895E889F9893497E88B38
:10095E00F98B0895AD85BE85EF85F88909950895C3
:10096E00A889B98914960E946405EE83FF83AE812F
:10097E00BF810895A889B98914960E946405EA87F3
:10098E00FB870895DE011C960E945C050E9464059B
:10099E0008950E940605A0ED0C943A050E943A05B2
:1009AE000E9415050E940605A1ED0E943A05A1E0E0
:1009BE000C941F05AE2F0E947904A881B981EC9387
:1009CE000895A1E00E941F05AE2F0C947904AA8110
:1009DE00BB81EC93A0E00C941F050E943A05A88100
:1009EE008EDFAE2F0C943A050E943A05AA8187DF5E
:1009FE00AE2F089590989198889A899815C08998E5
:100A0E008898EE270000819B0895809B089504D05E
:100A1E00899A02D0889AE1E06DE007C0899A889A97
:100A2E0003D08898F9DF89986BE16A95F1F70895FC
:100A3E0078E08898F1DF809BFECFEEDF8894819975
:100A4E000894889AF1DFEE1F7A9599F77A2F77231B
:100A5E0011F4899801C0899ADFDF8898E5DF889ABA
:100A6E00DBDF8998D9CF78E0AA0F10F4899801C0FE
:100A7E00899ADADF8898D0DF809BFECFCDDF889A07
:100A8E007A9591F78998C8DF8898CEDFE1E0819951
:100A9E00EE27889AC1CF109639F080ED97E0019736
:100AAE00F1F7A8951197C9F708950024AF0DB01D61
:100ABE000895F195E195F0400895ED91FC9111970F
:100ACE0008950590F491E02D08957A936A93FA9320
:100ADE00EA9308955A934A933A932A931A930A9350
:100AEE0008955D814C813B812A8119810881089589
:00000001FF
