:100000000C9458000C9400000C9400000C94000018
:100010000C9400000C9400000C9400000C94000060
:100020000C9400000C9400000C9400000C94000050
:100030000C9400000C9400000C9400000C94000040
:100040000C9400000C9400000C9400000C94000030
:100050000C9400000C9400000C9400000C94000020
:100060000C9400000C9400000C9400000C94000010
:100070000C9400000C9400000C9400000C94000000
:100080000C9400000C9400000C940000000080C050
:1000900001002D4E414E00494E4600000200040072
:1000A0008C00020006058E0001000A059000000089
:1000B000F894EE27ECBBF1E0F5BFE5BFE0936C00F0
:1000C0008DE0A2E0BB27ED938A95E9F780E090E10F
:1000D000A0E0B1E0ED930197E9F7ECE9F0E085915C
:1000E0009591009761F0A591B59105901590BF018C
:1000F000F00105900D920197E1F7FB01F0CF8BBF66
:10010000EFEFEDBFE0E1EEBFC0E0D5E00C9488007A
:10011000E0E0E7BBECE0E8BBE0EAE1BBE2BBA0E18A
:1001200099D0B2990BC0B399FECFAAEFB0E00E946C
:10013000A601F20131962F010E948701B39911C0E7
:10014000B299FECFAAEFB0E00E94A601F20131976A
:100150002F0100244014500414F4442455240E9418
:10016000870100240414050414F4959A01C095989D
:10017000D8CFFFCFAA93E881E07111F0DB9A01C0DC
:10018000DB98E881E07211F0DC9A01C0DC98E8812C
:10019000E07411F0DD9A01C0DD98E881E07811F09B
:1001A000DE9A01C0DE988DE08A95F1F7DA9A8DE04B
:1001B0008A95F1F7DA988DE08A95F1F778C0AA93DD
:1001C000A881D8DFE881E295E883A881D3DF85E8BC
:1001D0008A95F1F76CC0AA93E881F0E0EA5FFA4FE4
:1001E000E081A981AE0FEBDF7980688022960895C7
:1001F000A2E00E949801ACE0E2DFA1E00E94980139
:10020000E0E06E2E7E2E0895AA93A881AA3011F008
:10021000791448F0E0E0EA936394A62DDCDFA8812E
:10022000AA3009F444C07394D89AA881C8DFD8983A
:100230003EC0BA93AA931A93A981BA81ED91A9837A
:10024000BA831E2FE03019F0A12FDEDFF5CF188121
:1002500023960895AA93D39AD49AD59AD69AD29AE5
:10026000D09AD19ADA98D898D9989880E881E058AD
:10027000E0930805E881E054E0930905A4E1B0E0CB
:100280000E94A6010E949E010E949E010E949E0162
:10029000A0E270DF88EC90E00197F1F7A8E28FDF31
:1002A000A4E08DDFA5E88BDFA6E089DFA1DF219642
:1002B0000895BA93AA93A991B991E991F9913096C9
:1002C0002AF4E095F09531966DE26D93E89480E123
:1002D00097E20DD088EE93E00AD084E6992707D004
:1002E0008AE005D06E2F10D066276C93089566279C
:1002F000E817F90720F06395E81BF90BC9F76623A7
:1003000011F416F008956894605D6D9308955A9203
:100310004A92A0E0B5E00E9459010E94F800E0E096
:10032000EA93A0E00E94EB00A0E0B5E00C94190174
:100330000E94DF00A3E0B0E00C94A601A0E30E94BD
:10034000BA0088EC90E00197F1F70895109639F023
:1003500080ED97E00197F1F7A8951197C9F70895F7
:00000001FF
