:060000000C94B5000C9405
:1000060000000C9400000C9400000C9400000C946A
:1000160000000C9400000C9400000C9400000C945A
:1000260000000C9400000C9400000C9400000C944A
:1000360000000C9400000C9400000C9400000C943A
:1000460000000C9400000C9400000C9400000C942A
:1000560000000C9400000C9400000C9400000C941A
:1000660000000C9400000C9400000C9400000C940A
:1000760000000C9400000C9400000C9400000C94FA
:1000860000000C9400001027E80364000A00010039
:100096000010000110000100AC00B000B400B80070
:1000A600BC00C000C40053756E004D6F6E005475E1
:1000B60065005765640054687500467269005361AF
:1000C600740045727200202020202020202020204D
:1000D6002020202020200054494D453A202530324A
:1000E600753A253032753A2530327500253032752D
:1000F6002F253032752F2530327520257300564155
:100106004F204C4F50004B45542054485543204CEB
:100116004F50004845542047494F205241204348FC
:100126004F49000080C00E0067059E0011000005C3
:10013600CC0011001105CC000800220504010D00B9
:100146002A050C0110003705190108004705210191
:1001560010004F05190108005F0521010200750511
:100166002A010000F894EE27ECBBF1E0F5BFE5BFED
:10017600E0936C008DE0A2E0BB27ED938A95E9F74A
:1001860080E090E1A0E0B1E0ED930197E9F7ECE2C1
:10019600F1E085919591009761F0A591B591059053
:1001A6001590BF01F00105900D920197E1F7FB0153
:1001B600F0CF8BBFEFEFEDBFE0E1EEBFC0E0D5E0E3
:1001C6000C941C01AA93A881A03010F0A73008F067
:1001D6000CC0E881A7E6B5E0F0E0EE0FFF1FAE0F1A
:1001E600BF1F0E9420060C940405E8ECF0E00C9476
:1001F6000405BA93AA93AB9AA881B9810E940E0608
:10020600AB980E943605A0E0B5E00E94C6040C94A7
:10021600A304BA93AA930E943605A1E1B5E00E9411
:10022600C6040E943605A881B9810E94C6040C94B2
:10023600A304A097E0E0EABBEBBBE7BBE8BBE8E0C2
:10024600E4BBE0E0E5BBE1BBE2BBE2B9E3B9E093C6
:100256006100E0936200E0936400E0936500E0BF14
:10026600E3BFE2BFE1BFEFBDEEBDEDBDECBDE7BD57
:10027600E6BDEBBDEABDE9BDE8BDE0937900E093DC
:100286007800E5BDE4BDE3BDE0938B00E0938A0012
:10029600E0938900E0938800E0938100E09380007A
:1002A600E0938700E0938600E0938500E093840066
:1002B600E0938300E0938200E7BFE0937D00E09344
:1002C6006A00EABFE9BFEAB9E0939A00E0E8E8B954
:1002D600E0E0E0BDE6B9EDB9E09374000E94BD052B
:1002E600E3E0EA93E1E0EA93A0E00E94FC03A8E1E0
:1002F6000E94D704E6E0EA93EBE3EA93A7E30E94C1
:100306002E04E2E0EA93EFE1EA93ECE0EA93A8E157
:100316000E945604E5E0F0E0FA93EA93E4E0F0E0A8
:10032600FA93EA93A7E0B0E00E941504EBE0F0E050
:10033600FA93EA93E6E0F0E0FA93EA93E9E0F0E074
:10034600FA93EA93A8E0B0E00E943B04FE0170969F
:10035600FA93EA93EDEDF0E0FA93EA93E52D0E9425
:100366003B05E42D0E943B05E72D0E943B058CE0F2
:100376000E94C80360960E94A504E0E0EA93A0E00C
:100386000E949804DE0150960E94C604FE01FA936C
:10039600EA93E2EFF0E0FA93EA93E62D0E943B053A
:1003A600E92D0E943B05E82D0E943B05AB2D0ADF97
:1003B600662777270E94280680E10E94C803649674
:1003C6000E943605DE010E94C604E1E0EB1509F441
:1003D60062C0E7E0E51519F0EDE0E51521F44420EB
:1003E60011F4772009F004C0A2E2B5E00E944105AD
:1003F600EBE0E51519F0E1E1E51529F4E2E3E41592
:1004060011F4772009F004C0AAE2B5E00E94410584
:10041600E8E05E1618F0EAE0E51538F4EEE05E1660
:1004260018F0E0E1E51508F413C0442011F4772034
:1004360009F004C0A7E3B5E00E944705E2E3E4152E
:1004460011F4772009F004C0A7E4B5E00E9447053F
:10045600EBE0E51519F0E1E1E51531F4442011F47E
:10046600772009F001C001C004C0AFE4B5E00E94E6
:100476004105E7E0E51519F0EDE0E51539F4E2E3AD
:10048600E41511F4772009F001C001C004C0AFE5FE
:10049600B5E00E944105A8EEB3E00E940E063ACFF1
:1004A600FFCFBA93AA931A930A93AA81BB81129695
:1004B6000E942006309759F1AA81BB8114960E94AA
:1004C60020068F01309761F00230E0E01E0798F0B9
:1004D600F80131978F01AA81BB811496ED93FC93A5
:1004E600AA81BB811296ED91FD913196FE93EE9312
:1004F6003197AC81A083AA81BB810E942006FF238D
:100506002AF0ED91FD913196FE93EE9306C0AA81F5
:10051600BB81EFEFFFEFED93FC93198108812596E0
:100526000895BA93AA9326970E942D0610E0AC85EB
:10053600BD85E0E0F0E0ED93FC93EA89FB89319616
:10054600EA8BFB8B3197E4912E2FE03009F415C12D
:10055600E12FE03039F4253211F411E002C00E9497
:100566004D050AC1E130A9F4253219F40E944D0562
:1005760002C112E040E000E02D3211F401E0FCC0BF
:100586002B3211F44BE2F8C0203211F440E2F4C0F1
:1005960002C0E23039F450E013E0203311F4006871
:1005A600EBC003C0E33009F0E7C0203310F02A3374
:1005B60008F007C0AAE05A9F502DE22FE0535E0FC5
:1005C600DBC0E22FE33649F40E945405E889F98935
:1005D600A481AA930E945A05CEC0E33741F40E9433
:1005E60054050E9460050E9406051E2F0AC0E037CA
:1005F60061F40E9454050E9460050E9412051E2F98
:10060600086002600F7730E034C0E43611F0E93656
:1006160011F4046002C0E53731F4ECE8F0E0EE8353
:10062600FF8315E00CC0E83511F4086003C0E83715
:1006360009F0A1C0E6E9F0E0EE83FF8314E002FFD3
:1006460014C00E9454050E946A05AB85AA233AF499
:10065600EA85FB850E941C06EA87FB874DE240304F
:1006660011F01F5F01C00B7F04C00E9454050E9459
:100676006A0500FD11C0151778F407FF08C002FFD0
:1006860004C00B7F242F115001C020E301C020E2DB
:100696000E944D055150EFCF312F01FF17C030306A
:1006A600A1F003FF06C0EE81FF812591EE83FF8353
:1006B60005C0AE81BF812D91AE83BF830E944D05DB
:1006C600503009F051503150EACF4BC020E3EE8153
:1006D600FF810E942406E887F987EE81FF81329622
:1006E600EE83FF83E885F985AA85BB85AE17BF072C
:1006F60050F02F5FA885B985EA85FB85EA1BFB0BC1
:10070600EA87FB87EFCF2A3328F003FF02C0295F71
:1007160001C0295D04FD1AC0213320F4A885B985DE
:10072600119709F409C0531710F000FF01C013C058
:1007360020E207FF0BC020E3006102FF07C00B7F2A
:100746004A930E945A05503009F051500E944D05B7
:10075600503009F051503150A885B985129708F0EC
:10076600B5CF00FF08C0503031F05150E0E2EA93B7
:100776000E945A05F8CF10E0E0CEAC85BD850E94F8
:1007860020060E94340664960895FF92F82E269756
:100796000E942F060E947205309719F4EFEFFFEFC3
:1007A60023C0DE0116960E9418068D010E9472056E
:1007B600EE83FF83E0E0E887E987DE011A960E9470
:1007C60018060E942006FA93EA931A930A93E4E520
:1007D600F2E0FA93EA93DE011A96A3DE9F01AE8158
:1007E600BF81E0E0EC93F9010E9436062A96FF905D
:1007F6000895AA93EA81E370EA83E981E03019F06B
:10080600EA81E061EA83E881E03019F0EA81E06894
:10081600EA830E947905A7E00E94F605AA810E9454
:100826007E05C0C0BA93AA930E947905A0E00E94F3
:100836007E050E9482050E948A050E9491050E94FB
:100846009705AE2F0E941F05AC81BD81EC930E94D7
:10085600D10526960895AA930E947905A0E00E94E4
:100866009D050E94A3050E94A9050E947E059AC0C7
:10087600BA93AA930E947905A3E00E947E050E947E
:100886008205AE81BF81EC930E949105AC81BD814A
:10089600EC930E9491050E9497050E948A050E948A
:1008A600D10528960895AA930E947905A3E00E948F
:1008B600F605AB810E94A9050E94A3050E949D052D
:1008C6000E947E0524960895AA93E881E07111F0AE
:1008D600DB9A01C0DB98E881E07211F0DC9A01C076
:1008E600DC98E881E07411F0DD9A01C0DD98E881BA
:1008F600E07811F0DE9A01C0DE988DE08A95F1F776
:10090600DA9A8DE08A95F1F7DA988DE08A95F1F713
:1009160078C0AA93A881D8DFE881E295E883A88108
:10092600D3DF85E88A95F1F76CC0AA93E881F0E0F9
:10093600EB58FA4FE081A981AE0FEBDFA980D88092
:1009460022960895A2E00E94AF05ACE0E2DFA1E0A6
:100956000E94AF05E0E0DE2EAE2E0895AA93A88190
:10096600AA3011F0AC1448F0E0E0EA93D394AD2D30
:10097600DCDFA881AA3009F444C0A394D89AA881E0
:10098600C8DFD8983EC0BA93AA931A93A981BA81B0
:10099600ED91A983BA831E2FE03019F0A12FDEDF77
:1009A600F5CF188123960895AA93D39AD49AD59A07
:1009B600D69AD29AD09AD19ADA98D898D998C880E5
:1009C600E881E058E0937705E881E054E093780504
:1009D600A4E1B0E00E940E060E94B5050E94B5058E
:1009E6000E94B505A0E270DF88EC90E00197F1F770
:1009F600A8E28FDFA4E08DDFA5E88BDFA6E089DF24
:100A0600A1DF21960895BA93AA93A991B991EE27E9
:100A1600FF276D91662311F03196FBCF0895BA93A7
:100A2600AA93AA27BB27E991F9910590002011F016
:100A36001196FBCFFD010895AA93E881E295EF7028
:100A4600AE2FAA0FAA0FEA0FEE0FA991AF70EA0F09
:100A56000895AA93A991EE27AA5012F0E05FFCCF61
:100A6600A65FEA0F0895E0E0EA93A1E00C949804EB
:100A7600FF27662777270E94280608950E940C0103
:100A8600A0E1B7E20C94FC000E940C01A8E8B3E1D7
:100A96000C94FC002A93AD85BE85EF85F8890995EF
:100AA6000895E889F9893497E88BF98B0895AD851F
:100AB600BE85EF85F88909950895A889B9891496A0
:100AC6000E942006EE83FF83AE81BF810895A88928
:100AD600B98914960E942006EA87FB870895DE01ED
:100AE6001C960E9418060E94200608950E94C205C0
:100AF600A0ED0C94F6050E94F6050C94D1050E9413
:100B0600C205A1ED0E94F605A1E00C94DB05AE2F0F
:100B16000E941F05A881B981EC930895A1E00E9467
:100B2600DB05AE2F0C941F05AA81BB81EC93A0E0D8
:100B36000C94DB050E94F605A8818BDFAE2F089585
:100B46000E94F605A98185DFAE2F08950E94F6055D
:100B5600AA817FDFAE2F08950E948C04A3E0B0E047
:100B66000C940E06A0E30E94670488EC90E00197BF
:100B7600F1F708951E981F98169A179815C017989A
:100B86001698EE2700000F9B08950E9B089504D03B
:100B9600179A02D0169AE1E06DE007C0179A169AE6
:100BA60003D01698F9DF17986BE16A95F1F7089567
:100BB60078E01698F1DF0E9BFECFEEDF88940F9952
:100BC6000894169AF1DFEE1F7A9599F77A2F772314
:100BD60011F4179801C0179ADFDF1698E5DF169A09
:100BE600DBDF1798D9CF78E0AA0F10F4179801C069
:100BF600179ADADF1698D0DF0E9BFECFCDDF169A56
:100C06007A9591F71798C8DF1698CEDFE1E00F992D
:100C1600EE27169AC1CF109639F080ED97E001972E
:100C2600F1F7A8951197C9F708950024AF0DB01DE7
:100C36000895F195E195F0400895ED91FC91119795
:100C460008950590F491E02D08957A936A93FA93A6
:100C5600EA9308955A934A933A932A931A930A93D6
:100C660008955D814C813B812A811981088108950F
:00000001FF
