:040000000C944F000D
:100004000C9400000C9400000C9400000C9400006C
:100014000C9400000C9400000C9400000C9400005C
:100024000C9400000C9400000C9400000C9400004C
:100034000C9400000C9400000C9400000C947F00BD
:100044000C9400000C9400000C9400000C9400002C
:100054000C9400000C9400000C9400000C9400001C
:100064000C9400000C9400000C9400000C9400000C
:100074000C9400000C9400000C9400000C940000FC
:100084000C9400000C940000000080C001000500E6
:100094008C00020000058E000000F894EE27ECBBF3
:1000A400F1E0F5BFE5BFE0936C008DE0A2E0BB2773
:1000B400ED938A95E9F780E090E1A0E0B1E0ED935B
:1000C4000197E9F7E0E9F0E085919591009761F0F7
:1000D400A591B59105901590BF01F00105900D9281
:1000E4000197E1F7FB01F0CF8BBFEFEFEDBFE0E14C
:1000F400EEBFC0E0D5E00C949A00EA93EFB7EA9320
:10010400E6E0E2BFE1E0E51579F47394EAE0E7158F
:1001140011F443947724E4E6E41509F4959AE8ECA1
:10012400E41511F495984424E991EFBFE9911895E9
:10013400E0E0E7BBEDE0E8BBE0E2E1BBE0E0E0BF2C
:10014400E3E0E3BFE6E0E2BFE0E0E1BFE7BF7894CD
:10015400B29906C0AAEFB0E00E94C000959A552457
:10016400B39906C0AAEFB0E00E94C0009598552448
:10017400B09902C0E1E05E2EEBCFFFCF109639F0CC
:1001840080ED97E00197F1F7A8951197C9F70895C5
:00000001FF
