:0C0000000C949F000C9400000C94000075
:10000C000C9400000C9400000C9400000C94000064
:10001C000C9400000C9400000C9400000C94000054
:10002C000C9400000C9400000C9400000C94000044
:10003C000C9400000C94CF000C9400000C94000065
:10004C000C9400000C9400000C9400000C94000024
:10005C000C9400000C9400000C9400000C94000014
:10006C000C9400000C9400000C9400000C94000004
:10007C000C9400000C9400000C9400000C940000F4
:10008C001027E80364000A000100001000011000B2
:10009C0001000005040508050C05100514051805DC
:1000AC001C054572720053756E004D6F6E005475D1
:1000BC0065005765640054687500467269005361A9
:1000CC007400253032753A253032753A2530327548
:1000DC000054696D653A00253032752F2530327524
:1000EC002F323025303275202573000080C004007B
:1000FC000005AE0004000405B20004000805B600BB
:10010C0004000C05BA0004001005BE000400140520
:10011C00C20004001805C60004001C05CA0010002B
:10012C0027059E0006002005DD0002003705F800BB
:10013C000000F894EE27ECBBF1E0F5BFE5BFE093CF
:10014C006C008DE0A2E0BB27ED938A95E9F780E087
:10015C0090E1A0E0B1E0ED930197E9F7EAEFF0E070
:10016C0085919591009761F0A591B59105901590A9
:10017C00BF01F00105900D920197E1F7FB01F0CF63
:10018C008BBFEFEFEDBFE0E1EEBFC0E0D5E00C942C
:10019C000501EA93FA93EFB7EA93E6E6E2BFF301BF
:1001AC0031963F01E8EEF3E0E615F70519F4E1E0CE
:1001BC00F0E02F01E0EDF7E0E615F70521F46624F9
:1001CC00772444245524E991EFBFF991E9911895CE
:1001DC00AA93A881A13010F0A83008F00BC0E881D8
:1001EC00A7E2B5E0F0E0EE0FFF1FAE0FBF1F0E94BD
:1001FC00530537C1E0912705F091280532C1A0972E
:10020C000E94F004A0E1FFD0E3E0EA93E1E0EA937E
:10021C00A0E00E94E103ECE0EA93EDE0EA93AAE0AF
:10022C000E940F04EBE1EA93EBE0EA93E8E1EA9336
:10023C00A4E00E943A047894E9E0F0E0FA93EA939F
:10024C00E8E0F0E0FA93EA93ABE0B0E00E94F80348
:10025C00EAE0F0E0FA93EA93EDE0F0E0FA93EA9347
:10026C00ECE0F0E0FA93EA93A6E2B5E00E942104F8
:10027C00FE017096FA93EA93EEECF0E0FA93EA93AF
:10028C00E92D0E947F04E82D0E947F04EB2D0E9433
:10029C007F048CE00E94AD03609677D0E0E0EA9397
:1002AC00A0E062D0A0E2B5E09ED0E6E0EA93A0E048
:1002BC005BD0DE01509697D0FE01FA93EA93E3EE01
:1002CC00F0E0FA93EA93EA2D0E947F04ED2D0E9450
:1002DC007F04EC2D0E947F04A091260579DF662710
:1002EC0077270E945B0580E10E94AD036496E0E0F5
:1002FC00EA93A1E039D0DE0176D0A4EFB1E00E9400
:10030C0041059ACFFFCFAA93E881E07111F0C39A0F
:10031C0001C0C398E881E07211F0C49A01C0C4987E
:10032C00E881E07411F0C59A01C0C598E881E078C5
:10033C0011F0C69A01C0C6988DE08A95F1F7C29A61
:10034C008DE08A95F1F7C2988DE08A95F1F789C016
:10035C00AA93A881D8DFE881E295E883A881D3DF4E
:10036C0085E88A95F1F77DC0AA93E881F0E0E95C15
:10037C00FA4FE081A981AE0FEBDFE981E0933B05F9
:10038C00E881E0933C0522960895A2E00E94850442
:10039C00ACE0DEDFA1E00E948504E0E0E0933C05E8
:1003AC00E0933B050895AA93A881AA3031F0E0911F
:1003BC003D05A0913B05AE1760F0E0E0EA93A091FB
:1003CC003C05AF5FA0933C05CFDFA881AA3009F4B0
:1003DC0048C0E0913B05EF5FE0933B05C09AA881D4
:1003EC00B7DFC0983EC0BA93AA931A93A981BA8179
:1003FC00ED91A983BA831E2FE03019F0A12FD3DF22
:10040C00F5CF188116C2AA93BB9ABC9ABD9ABE9A14
:10041C00BA9AB89AB99AC298C098C198E881E093F0
:10042C003D05E058E0933905E881E054E0933A0546
:10043C00A4E1B0E00E9441050E948B040E948B0451
:10044C000E948B04A0E25FDF88EC90E00197F1F74B
:10045C00A8E27EDFA4E07CDFA5E87ADFA6E078DF07
:10046C0094DF21960895BA93AA931A930A93AA81BA
:10047C00BB8112960E945305309759F1AA81BB811A
:10048C0014960E9453058F01309761F00230E0E022
:10049C001E0798F0F80131978F01AA81BB81149641
:1004AC00ED93FC93AA81BB811296ED91FD9131964F
:1004BC00FE93EE933197AC81A083AA81BB810E94FD
:1004CC005305FF232AF0ED91FD913196FE93EE93A7
:1004DC0006C0AA81BB81EFEFFFEFED93FC9319816E
:1004EC00088125960895BA93AA9326970E946005D1
:1004FC0010E0AC85BD85E0E0F0E0ED93FC93EA897B
:10050C00FB893196EA8BFB8B3197E4912E2FE030EF
:10051C0009F415C1E12FE03039F4253211F411E062
:10052C0002C00E9493040AC1E130A9F4253219F4E7
:10053C000E94930402C112E040E000E02D3211F45D
:10054C0001E0FCC02B3211F44BE2F8C0203211F464
:10055C0040E2F4C002C0E23039F450E013E0203342
:10056C0011F40068EBC003C0E33009F0E7C020339E
:10057C0010F02A3308F007C0AAE05A9F502DE22F42
:10058C00E0535E0FDBC0E22FE33649F40E949A047D
:10059C00E889F989A481AA930E94A004CEC0E3370C
:1005AC0041F40E949A040E94A6040E944F041E2F3C
:1005BC000AC0E03761F40E949A040E94A6040E94CB
:1005CC005B041E2F086002600F7730E034C0E43605
:1005DC0011F0E93611F4046002C0E53731F4ECE8AF
:1005EC00F0E0EE83FF8315E00CC0E83511F40860F1
:1005FC0003C0E83709F0A1C0E6E9F0E0EE83FF8321
:10060C0014E002FF14C00E949A040E94B004AB854F
:10061C00AA233AF4EA85FB850E944F05EA87FB87FB
:10062C004DE2403011F01F5F01C00B7F04C00E94EF
:10063C009A040E94B00400FD11C0151778F407FF4E
:10064C0008C002FF04C00B7F242F115001C020E30F
:10065C0001C020E20E9493045150EFCF312F01FFD3
:10066C0017C03030A1F003FF06C0EE81FF81259149
:10067C00EE83FF8305C0AE81BF812D91AE83BF8316
:10068C000E949304503009F051503150EACF4BC0C6
:10069C0020E3EE81FF810E945705E887F987EE8100
:1006AC00FF813296EE83FF83E885F985AA85BB85A9
:1006BC00AE17BF0750F02F5FA885B985EA85FB857B
:1006CC00EA1BFB0BEA87FB87EFCF2A3328F003FFEB
:1006DC0002C0295F01C0295D04FD1AC0213320F43A
:1006EC00A885B985119709F409C0531710F000FFBC
:1006FC0001C013C020E207FF0BC020E3006102FF22
:10070C0007C00B7F4A930E94A004503009F051504F
:10071C000E949304503009F051503150A885B9858E
:10072C00129708F0B5CF00FF08C0503031F051508F
:10073C00E0E2EA930E94A004F8CF10E0E0CEAC8592
:10074C00BD850E9453050E94670564960895FF922B
:10075C00F82E26970E9462050E94B804309719F46F
:10076C00EFEFFFEF23C0DE0116960E944B058D01C3
:10077C000E94B804EE83FF83E0E0E887E987DE019E
:10078C001A960E944B050E945305FA93EA931A930A
:10079C000A93E9E3F2E0FA93EA93DE011A96A3DEF8
:1007AC009F01AE81BF81E0E0EC93F9010E946905E5
:1007BC002A96FF900895AA93EA81E370EA83E9816F
:1007CC00E03019F0EA81E061EA83E881E03019F069
:1007DC00EA81E068EA830E94BF04A7E00E94290531
:1007EC00AA8123C0BA93AA930E94BF04A0E00E94DE
:1007FC00C4040E94D0040E94D7040E94DD04AE2FD2
:10080C000E946804AC81BD81EC930E94040526967D
:10081C000895AA930E94BF04A0E00E94E304A9815A
:10082C000E947504AE2F0E94EA040E9429050E94C2
:10083C00040523960895BA93AA930E94BF04A3E0DB
:10084C000E94C404AE81BF81EC930E94D704AC819A
:10085C00BD81EC930E94D7040E94DD040E94D00459
:10086C000E94040528960895AA930E94BF04A3E051
:10087C000E942905AB810E94EA040E942905A981E6
:10088C000E947504AE2F0E94E3040E940405249676
:10089C000895BA93AA93A991B991EE27FF276D9168
:1008AC00662311F03196FBCF0895BA93AA93AA2729
:1008BC00BB27E991F9910590002011F01196FBCF1F
:1008CC00FD010895AA93E881E295EF70AE2FAA0F6F
:1008DC00AA0FEA0FEE0FA991AF70EA0F0895AA9331
:1008EC00A991EE27AA5012F0E05FFCCFA65FEA0FA9
:1008FC000895FF27662777270E945B0508950E94BD
:10090C00AE01A3E0B0E00C944105A0E30E94890184
:10091C0088EC90E00197F1F708952A93AD85BE8598
:10092C00EF85F88909950895E889F9893497E88B5A
:10093C00F98B0895AD85BE85EF85F88909950895E5
:10094C00A889B98914960E945305EE83FF83AE8162
:10095C00BF810895A889B98914960E945305EA8726
:10096C00FB870895DE011C960E944B050E945305DF
:10097C0008950E94F504A0ED0C9429050E94290508
:10098C000E9404050E94F504A1ED0E942905A1E036
:10099C000C940E05AE2F0E946804A881B981EC93CB
:1009AC000895A1E00E940E05AE2F0C946804AA8154
:1009BC00BB81EC93A0E00C940E050E942905A88144
:1009CC008EDFAE2F0C9429050E942905AA8187DFA2
:1009DC00AE2F089590989198889A899815C0899807
:1009EC008898EE270000819B0895809B089504D081
:1009FC00899A02D0889AE1E06DE007C0899A889ABA
:100A0C0003D08898F9DF89986BE16A95F1F708951E
:100A1C0078E08898F1DF809BFECFEEDF8894819997
:100A2C000894889AF1DFEE1F7A9599F77A2F77233D
:100A3C0011F4899801C0899ADFDF8898E5DF889ADC
:100A4C00DBDF8998D9CF78E0AA0F10F4899801C020
:100A5C00899ADADF8898D0DF809BFECFCDDF889A29
:100A6C007A9591F78998C8DF8898CEDFE1E0819973
:100A7C00EE27889AC1CF109639F080ED97E0019758
:100A8C00F1F7A8951197C9F708950024AF0DB01D83
:100A9C000895F195E195F0400895ED91FC91119731
:100AAC0008950590F491E02D08957A936A93FA9342
:100ABC00EA9308955A934A933A932A931A930A9372
:100ACC0008955D814C813B812A81198108810895AB
:00000001FF
