:020000000C945E
:1000020052010C9400000C9400000C9400000C941B
:1000120000000C9400000C9400000C9400000C945E
:1000220000000C9400000C9400000C9400000C944E
:1000320000000C9400000C9400000C9400000C943E
:1000420000000C9400000C9400000C9400000C942E
:1000520000000C9400000C9400000C9400000C941E
:1000620000000C9400000C9400000C9400000C940E
:1000720000000C9400000C9400000C9400000C94FE
:1000820000000C9400000C940000050720600000A2
:1000920000000000005F00000007000700147F144A
:1000A2007F14242A7F2A12231308646236495522B8
:1000B200500005030000001C2241000041221C00E8
:1000C200082A1C2A0808083E0808005030000008C8
:1000D20008080808003030000020100804023E51D1
:1000E20049453E00427F4000426151494621414517
:1000F2004B311814127F1027454545393C4A49496E
:100102003001710905033649494936064949291E14
:100112000036360000005636000000081422411452
:100122001414141441221408000201510906324920
:1001320079413E7E1111117E7F494949363E414146
:1001420041227F4141221C7F494949417F090901DE
:10015200013E414151327F0808087F00417F410042
:100162002040413F017F081422417F404040407FB0
:100172000204027F7F0408107F3E4141413E7F0915
:100182000909063E4151215E7F091929464649491E
:10019200493101017F01013F4040403F1F20402083
:1001A2001F7F2018207F631408146303047804035C
:1001B200615149454300007F41410204081020413A
:1001C200417F00000402010204404040404000011F
:1001D20002040020545454787F484444383844443C
:1001E2004420384444487F3854545418087E090146
:1001F20002081454543C7F0804047800447D4000F3
:100202002040443D00007F10284400417F40007C94
:10021200041804787C0804047838444444387C1474
:10022200141408081414187C7C0804040848545454
:100232005420043F4440203C4040207C1C2040206D
:100242001C3C4030403C44281028440C5050503C48
:100252004464544C44000836410000007F00000012
:100262004136080002010204027F4141417F000140
:1002720003070F1F3F7FFF00656D206475632064D5
:10028200657020747261690001002D4E414E004973
:100292004E460000100000057A02010027078A027C
:1002A2000000F894EE27ECBBF1E0F5BFE5BFE09368
:1002B2006C008DE0A2E0BB27ED938A95E9F780E020
:1002C20090E1A0E0B1E0ED930197E9F7E6E9F2E011
:1002D20085919591009761F0A591B5910590159042
:1002E200BF01F00105900D920197E1F7FB01F0CFFC
:1002F2008BBFEFEFEDBFE0E1EEBFC0E0D5E00C94C5
:1003020082012897E0E8EABBE0E0EBBBE7BBE8BB91
:10031200E4BBE5BBE0E8E1BBE0E0E2BBE2B9E3B9A4
:10032200E0936100E0936200E0936400E093650073
:10033200E0BFE3BFE2BFE1BFEFBDEEBDEDBDECBD8F
:10034200E7BDE6BDEBBDEABDE9BDE8BDE0937900DE
:10035200E0937800E5BDE4BDE3BDE0938B00E0935C
:100362008A00E0938900E0938800E0938100E093A3
:100372008000E0938700E0938600E0938500E0939D
:100382008400E0938300E0938200E7BFE0937D0066
:10039200E0936A00EABFE9BFEAB9E0939A00E0E8B5
:1003A200E8B9E0E0E0BDE6B9EDB9E0937400ECE84D
:1003B200F0E0E883F983E0E0EA83EB83EC83ED830A
:1003C200EE81EC7FE260EE83E37EE061EE83EF811B
:1003D200E078E763EF83DE019AD0E5E0EA93EA93FF
:1003E200A0E0B5E00E94BE06E5E0EA93EA93E9E107
:1003F200EA93A9E10E941C08E9E1EA93EA93AAE0E0
:100402000E94310AEAE2EA93E8E1EA93A4E10E9457
:10041200310AE3E0EA93EA93EEE4EA93AAE20E9465
:100422001C08FFCFFFCF0895AA931A93E0916500AD
:10043200EF7EE093650018E0F6DFE981E07821F0D5
:10044200E0916500E26003C0E0916500ED7FE0931A
:100452006500E981EE0FE983E6DFE0916500E46083
:10046200E0936500E0DFE0916500EB7FE0936500DB
:10047200115011F7E0916500E061E0936500188189
:1004820048C1AA93E0916500EE7FE0936500A881E0
:10049200CBDFE2C0AA93E0916500E160E0936500E2
:1004A200A881C2DFD9C0AA931A93E981E695E6959D
:1004B200E6951E2FE4E5E19FF001DF01EA81F0E01D
:1004C200EA0FFB1FE0932D05F0932E05E12F188113
:1004D20023960895AA93E981E068AE2FD2DFE981DD
:1004E200EA93A981E0DFE064AE2FCBDF12C1AA93C9
:1004F200E981EA93A981EEDF0E94BC0AE08109C189
:10050200AA930E94C30AA881A083C4DFA5C0BA939C
:10051200AA930E940D0CE0916400E0610E94CE0A51
:10052200E061E0936500E0916400E4600E94CE0A1D
:10053200EB7FE0936500E0916400E260E093640089
:10054200E0916400E160E0936400E0916400E8609F
:100552000E94CE0AE77FE0936500AAE0B0E00E9425
:10056200B60BE0916500E860E0936500EC81FD81E7
:10057200309721F1E681E3701E2FEC81FD81E68147
:10058200E695E695E7700E2FEC81FD81E781EF7726
:100592003E2FAC81BD810E94E60BE0931405F093DF
:1005A200150512960E94E60BE0932905F0932A05A1
:1005B200AC81BD8114960E94E60B0DC010E003E0F1
:1005C20032E3E0E0F0E0E0931405F0931505E093E8
:1005D2002905F0932A05E0932B05F0932C05A1E25F
:1005E20050DFE12FE460AE2F4CDFE02FE061AE2F51
:1005F20048DFE32FE068AE2F44DFA0E242DFA1E054
:1006020022D0E1E0E0931005E0E0E0931105E1E0A3
:10061200E0931605E0931705E0931805EFEFE093DA
:100622001905E1E0E0932005E1E2F5E0FA93EA93AF
:10063200EFEFEA93A8E0B0E00E943B0A0FD0E1E0BE
:100642000E94140C9FC0AA93E881E03011F0ECE004
:1006520001C0E8E0AE2F15DF219608950E940D0C2F
:1006620030E0E0911105E03009F03FEFE0E0EA937D
:10067200A0E030DF08EF11E0F801015010403097A0
:1006820019F0A32F3DDFF8CFE0E0EA93A0E0A5D375
:100692000E94140C24960895AA931A930A93AC818B
:1006A200A43518F4AB81A03308F015C0EC81EA93AD
:1006B200AC811DDF1E2FEB81E770A1E00E94C40B0D
:1006C2000E2FEA81E03011F0102B03C0E02FE095ED
:1006D2001E23A12F15DF1981088125960895AA935B
:1006E200A981A43518F4A881A03310F0E0E011C06C
:1006F200E981EA93A981D7DE0E94BC0A1080E881D1
:10070200E770A1E00E94C40BE12111F0E1E001C019
:10071200E0E022960895AA931A93ED81EA93AD81BF
:10072200E6DE1E2FE981E73011F0E83039F4EB8183
:10073200EA93AA810E94560AEB8308C0E33021F4AF
:10074200EB81E095EB8302C0E03021F4EA81E09591
:100752001E2302C0E23029F4EA81AB81EA231E2B78
:100762000EC0E13029F4EA81AB81EA231E2707C0DB
:10077200E43029F4EA81E095AB81EA2B1E23A12F14
:10078200BFDE188126960895AA9323970E940B0C28
:10079200A889A43548F4AF85A03330F4AE85A030E3
:1007A20019F0AD85A03009F4CCC1EE85E887A8899F
:1007B200BB27EE85F0E0AE0FBF1FA535E0E0BE0718
:1007C20020F0A889E4E5EA1BEE872D85AF85BB27DB
:1007D200ED85F0E0AE0FBF1FD19720F0AF85E0E3CB
:1007E200EA1BED87A985A63009F05BC0EC85E130F4
:1007F20009F4A7C1E33039F4E0912B05F0912C05FF
:10080200309709F49EC10885ED85E695E695E69553
:100812003E2FE22FE77019F4AD852A17E9F0A02FD9
:10082200BB27E32FF0E00E94DE0BAA85BB850E9466
:10083200D30A269526952695532F5F935F5FE22F65
:10084200AF91EA1748F0102FE12F1150E03019F064
:100852000E94D80AF9CFF1CFAE850A1711F1EE85C1
:10086200AA85BB85F0E00E94D30AED85E77009F006
:100872003F5F20E02F932F5FE32FAF91AE1788F4F5
:100882001E851F931F5FE02FAF91AE1718F40E94D1
:10089200D80AF7CFEE85AE81BF81F0E00E94D30A7D
:1008A200E9CFEF85E7703E2FED85E03009F449C1CD
:1008B200EA85FB85EE83FF8310E00889303009F07A
:1008C20063C0AD85A83008F45AC0E985E03011F064
:1008D200E33009F402C0E73009F402C0E83009F459
:1008E20002C0E93009F402C0EA3021F40A93A8896F
:1008F200F1DD04C0E63011F40E94E50A1F931F5F88
:10090200EE85AF91AE17A0F5A985A63051F40E94ED
:10091200E90AFA93EA930E94C30AA0810E949D0AFF
:1009220026C0E985E93011F450E00EC0EA3011F436
:100932005FEF0AC00E94E90A0E94F20A5E2FE9856F
:10094200E73011F0E83021F40E94F80A5E2F06C069
:10095200E33011F4509502C0E03019F4A52F9ADD6E
:1009620006C00E94FC0AEFEFEA93AD85D4DEC6CF43
:10097200EF85E85FEF87ED85E850ED87D9C05D85AB
:1009820020E0E0E0ED877EC0E32FAD85AE0FA93019
:1009920020F42D85E0E0ED8703C0E8E0E31B2E2F75
:1009A2003A93A22F0E944B0A4E2FE985E63011F5A9
:1009B2000E94E50A1F931F5FEE85AF91AE17C8F440
:1009C2000E94C30AE081E423AE2FE32F0E94CC0BE6
:1009D2000E94020BE32FA42F0E94CC0BE095E12191
:1009E2005E2B0E94E90AFA93EA93A52F0E949D0AC0
:1009F200E1CF2CC0E93011F450E003C0EA30A9F491
:100A02005FEF0E94F80AAE2FE32F0E94C40B5E2F05
:100A12001F931F5FEE85AF91AE1730F40E94FC0A60
:100A22004A93A0E078DEF4CF11C01F931F5FEE85DA
:100A3200AF91AE1758F40E940D0BAE2FE32F0E9418
:100A4200C40BEA934A93AD8566DEEFCFED85E030C5
:100A520009F477C0AD85A83028F4ED85E21B5E2F3E
:100A6200E0E003C0532FED85E850ED8710E0EF85FD
:100A7200E85FEF87E8E0E31B2E2F0889EA85FB8514
:100A8200EE83FF83E52FF0E0E059FD4F4491E985C5
:100A9200E63011F50E94E50A1F931F5FEE85AF91C4
:100AA200AE17C8F40E94C30AE081E423AE2FE22FFE
:100AB2000E94C40B0E94020BE22FA42F0E94C40BBF
:100AC200E095E1215E2B0E94E90AFA93EA93A52FB1
:100AD2000E949D0AE1CF2CC0E93011F450E003C01E
:100AE200EA30A9F45FEF0E94F80AAE2FE22F0E94CB
:100AF200CC0B5E2F1F931F5FEE85AF91AE1730F4C4
:100B02000E94FC0A4A93A0E006DEF4CF11C01F93B4
:100B12001F5FEE85AF91AE1758F40E940D0BAE2FFA
:100B2200E22F0E94CC0BEA934A93AD85F4DDEFCF1E
:100B3200E885AA85BB85F0E0EA0FFB1FEA87FB8701
:100B4200B3CE0E94120C619608950E941A0B24F0F3
:100B5200E0E0F0E00C94540AA881B981A435E0E009
:100B6200BE0724F0E3E5F0E00C94540AE881F98131
:100B72000C94540A0E941A0B24F0E0E0F0E00C946A
:100B8200540AA881B981D09724F0EFE2F0E00C94E6
:100B9200540AE881F9810C94540AAA93E981EA93F0
:100BA200E981EA93A091100577DD0C94540ABA9377
:100BB200AA9323970E94210B8F01002E012A19F478
:100BC200E0E0F0E05FC00E94280B0F820E94280B39
:100BD2000E820E94280B0886EB85A885EA1718F476
:100BE200E0E0F0E04FC0F8010F5F1F4F5491A8857D
:100BF200BB27EE27A50FBE1FEB85F0E0EA17FB0728
:100C020018F0E0E0F0E03EC0EE81E695E695E6956C
:100C12004E2FEE81E77009F04F5FEF81E030A1F0D7
:100C2200A985BA85EC93A885EB85EA1BF0E0DF0184
:100C3200EF81F0E00E94DE0BDF01E42FF0E00E9482
:100C4200DE0BE00FF11F1EC09801E52FF0E00E0F42
:100C52001F1FA885AF5FA887A150EB85AE1760F470
:100C6200F9012F5F3F4FA491B0E0E42FF0E00E9422
:100C7200DE0B0E0F1F1FEDCFF901E491A985BA8596
:100C8200EC93F8010E94120C2C960895E0E0E09398
:100C92001205A0911305BB270E942D0BF0E0AE0FA9
:100CA200BF1FE0911705F0E0AE0FBF1F63DFE093B7
:100CB20013050895AA9321970E94210B309709F4F6
:100CC20057C0AF81AA3009F44FC0EF81EA93DE0129
:100CD20017966DDFAF01309719F40E94120C61C3B1
:100CE200E0911605AE81EA0F3E2FA0911205BB27B7
:100CF2000E94340B0535E0E01E0718F0032F112780
:100D0200C5DFE0911205EA93E0911305EA93E885C5
:100D1200EA930E942D0BEA93E1E0EA935A934A93F5
:100D2200A7E032DDE0911205AE81EA0FEA93E0918D
:100D32001305EA93E0911605EA930E942D0B0E9497
:100D4200390BE0911205EA93A09113050E942D0B35
:100D5200EA0FEA933A93E09117050E94390BE4E512
:100D6200F0E0E017F10721F491DF0E94120C19C3A1
:100D7200009312050E94120C14C3BA93AA931A93F9
:100D8200EC81EA93AC8129D0A981BA81ED91A98342
:100D9200BA831E2FE03019F0A12F8CDFF5CF188116
:100DA2000C94490AAA93EA81EA93EA81EA93E091D0
:100DB2001905AA81EA2319F0E091100502C0E09119
:100DC2001105AE2F69DCE881EE0FE883E03011F403
:100DD200E1E0E883E8810C949B0AAA93A981BB27EE
:100DE200B4DEE0931205A881BB27C4DEE0931305AD
:100DF2000C94540AAA932B970E940B0CAC89BB2724
:100E0200A4DEEC8BAA89BB27A0DEEA8BAB89BB27C9
:100E1200B1DEEB8BA989BB27ADDEE98BEA89E093D2
:100E22001205E989E0931305E1E0E887E989AB89D6
:100E3200EA1771F51C89AA891A1731F41A93EC89F9
:100E4200EA93A1E0AFDFC8C0AA891A1730F4EA8991
:100E5200E11B0E2F41E050E006C0AA89E12FEA1BF8
:100E62000E2F4FEF5FEF3B89E0E0EE830E94430BD2
:100E720038F41A933A933395AA8594DFEF83F6CF29
:100E8200EF81E887140FE02F0150E03061F7A4C032
:100E9200EA89AC89EA1739F53B89A9893A1730F40E
:100EA200E989E31B2E2FE1E0F0E006C0A989E32FD8
:100EB200EA1B2E2FEFEFFFEFED87FE871C89E0E0A4
:100EC200EE830E94430B30F41A9313950E944B0B4E
:100ED200EF83F7CFEF81E887ED853E0FE22F2150B8
:100EE200E03061F779C0E0E0EE830E94430B08F046
:100EF20073C01C893B89E1E02E2F0E2FAA89BB27E4
:100F0200EC89F0E0AE1BBF0BAD0155232AF40FEFC5
:100F1200FA010E94C00BAF01FA01EE0FFF1FEF872B
:100F2200F88BA989BB27EB89F0E0AE1BBF0BAD871D
:100F3200BE87AE85AA233AF42FEFED85FE850E9487
:100F4200C00BED87FE87ED85FE85EE0FFF1FEB8759
:100F5200FC871A933A93A1E025DFE887E0E0E9876E
:100F6200EA87AD85BE854A175B07BCF0100FEB859B
:100F7200FC850E944F0BA985BA854A175B072CF4A2
:100F8200320FAF85B8890E94560B1A930E944B0B01
:100F9200E887EA89E11751F718C0320FEF85F8891F
:100FA2000E944F0BED85FE85A985BA85EA17FB07DE
:100FB2002CF4100FAB85BC850E94560B1A930E942D
:100FC2004B0BE887E989E31741F7EB89EF5FEB8B7E
:100FD200E989EF5FE98B89CF0E94120C659608952B
:100FE200BA93AA930E940B0CEE81FF8113810181B7
:100FF2003281AE81BF812C91011718F4502F012F3D
:10100200152F231718F4522F232F352FE12FAE81DE
:10101200BF811396EC93E32FAE81BF811296EC93BE
:10102200E02FAE81BF811196EC93AE81BF812C93EC
:101032000E94120CB6C1AA930E940D0CE0911805F1
:10104200E1503E2FDE011496CBDFED81E31B1E2F14
:10105200EC81E31B0E2FEF81EA93EF81EA931A935F
:10106200A985C8DE1A93EF81EA931A93A02FC2DEF4
:10107200ED81EA930A93E32FA985EA0FEA93A02F61
:10108200B9DEEF81EA93ED81EA93E985EA93E32FF2
:10109200A985AE0F83C1BA93AA9323970E940B0C22
:1010A200ED85E887E0911805EF83E0911005EE8366
:1010B200AA89BB27EF850E94340BA989BB27E8893F
:1010C2000E945D0BE8890E94640B71F0E885E0786C
:1010D200F1F4AD85BE85EAE5F0E00E946C0B1CF0F0
:1010E2000E94750B0CF413C0332312F00E947A0B8A
:1010F200AF81A23020F02230E0E03E070CF407C0BE
:101102000E947E0B21F40A93A22FA15046DDE885AE
:10111200E878E83891F0E885E078C9F4AD85BE85D5
:10112200A25FBE4F0E94870B3CF0AD85BE85A25FD9
:10113200BE4F0E948C0B0CF40AC00E94910B38F037
:101142000E94980B21F40A93A42FAF5F26DDAA898F
:10115200BB27EF85F0E0AE1BBF0B8D0111230AF414
:1011620045C0E885E278E23891F0E885E07811F54B
:10117200AD85BE85A65ABF4F0E94870B3CF0AD8558
:10118200BE85A65ABF4F0E948C0B0CF413C03323AA
:1011920012F00E947A0BAF81A23020F02230E0E000
:1011A2003E070CF407C00E947E0B21F40A93A22F83
:1011B200A150F3DCE885E478E43871F0E885E07862
:1011C200A9F4AD85BE85EEE0F1E00E946C0B1CF047
:1011D2000E94750B0CF40AC00E94910B38F00E9419
:1011E200980B21F40A93A42FAF5FD7DCAA89BB27FF
:1011F200E8890E94340BA989BB27EF850E945D0B09
:10120200EF850E94640B81F0E885E078F1F4EB85CC
:10121200FC85AD85BE85AE17BF072CF0E985FA8542
:10122200EA17FB070CF411C033237AF00E947A0B01
:10123200AF81A23050F0E02FEE5F0E94A10B29F4A3
:10124200E02FEF5FEA93A22FA8DCE885E878E83880
:1012520071F0E885E078C1F4AD85BE85E8E6F1E09D
:101262000E946C0B1CF00E94750B0CF40DC00E94C6
:10127200910B50F0E02FEE5F0E94A90B29F4E02FB2
:10128200EF5FEA93A42F89DCAA89BB27E889F0E003
:10129200AE1BBF0B8D0111230AF450C0E885E27822
:1012A200E23871F0E885E07809F5AD85BE85E4EBBA
:1012B200F0E00E946C0B1CF00E94750B0CF416C03F
:1012C2003323A2F00E947A0BAF81A23020F00230C9
:1012D200E0E01E070CF40AC0E02FE2500E94A10BCE
:1012E20029F4E02FE150EA93A22F57DCE885E47855
:1012F200E43891F0E885E07809F5AD85BE85AC5417
:10130200BF4F0E94870B3CF0AD85BE85AC54BF4FEA
:101312000E948C0B0CF412C00E94910B20F0023040
:10132200E0E01E070CF40AC0E02FE2500E94A90B75
:1013320029F4E02FE150EA93A42F2FDC0E94120C33
:1013420063960895AA930E940D0CAF81BB27ED818D
:10135200F0E0AE1BBF0BF9DB1E2FAF81BB27ED8187
:10136200F0E0AE0FBF1FF1DB0E2FAE81BB27EC8189
:10137200F0E0AE1BBF0BFEDB3E2FAE81BB27EC8144
:10138200F0E0AE0FBF1FF6DB2E2F1A933A930A93AB
:10139200A32F30DD1A932A930A93A22F2BDD0E94EA
:1013A200140C28960895AA930E940B0CA985A435C3
:1013B20018F4A885A03308F04FC050911805E52F06
:1013C2005150E03009F448C0EF81E03009F444C0E4
:1013D200EF81E150EF83EF5F0E2FF0E0A5E0B0E088
:1013E200AE1BBF0BFD010E94D40B0E94D90B9F01C3
:1013F20010E0AE81A03459F40E94B10B1A93A02FD1
:10140200A1DF0E94B10B0A93A12F9CDF0FC00E94A3
:10141200B10B1A930A93EA85F0E0FA93EA93E0E0BB
:10142200F0E0FA93EA93A0E0B0E035DE1F5F3323E9
:101432001AF4E12FF0E008C00150A12FBB27E02FE2
:10144200F0E0AE1BBF0BFD01EE0FFF1F31962E0F1A
:101452003F1F011770F6B3CF0E94120C2A9608950F
:10146200AA93EA81EA93EA81EA93EA81EA93AFE8EE
:101472009ADF60C0BA93AA93B981A881109631F01D
:10148200FC81EB816A8161931197E9F7EB81FC8121
:1014920025960895AA93E881F0E0E059FD4FA491C2
:1014A200E9810E94C40B22960895AA931A93E981B6
:1014B200E73011F0EA3019F41091100509C0E93053
:1014C20019F41091110504C0E830A1F4109120051F
:1014D200E0911105E03049F0103019F0EFEF18817A
:1014E20029C0EA81E095188125C0103019F4E0E0A6
:1014F200188120C0EA8118811DC0BA93AA93EA819B
:10150200E13021F4E881F981E49114C0E23029F458
:10151200A881B9810E94EA0B0DC0E33041F4A88191
:10152200B981E0912905F0912A05099503C0A881A6
:10153200B981EC9123960895AA93EB81E03029F4C6
:10154200E881A981BA81EC9314C0E23031F4E881D8
:10155200A981BA810E94F60B0CC0E33051F4E981F3
:10156200FA81FA93EA93AA81E0912B05F0912C0576
:10157200099524960895E0912D05F0912E05E15DDF
:10158200FA4F0895ADE2B5E0ED91FD913196FE93EB
:10159200EE933197E15DFA4F0895E0936400E09194
:1015A20065000895EA0FFB1FEE83FF830895EC8523
:1015B200EA93EF81F8853196EF83F8873197FA93B2
:1015C200EA93A0E00C949D0A0A93A8890C94540211
:1015D200EC85EA93EF81F8853196EF83F8873197AE
:1015E200089566277727DF01CB010C947E0A5A9370
:1015F200AA850C94560A0A930395E889EA935A93AA
:1016020008955E2FEC85EA93AF81B88588279927E4
:101612000E947E0A1E2E08950A930395E889EA9392
:10162200EE85EA93E985FA853196E987FA8731975B
:10163200D8CFBA93AA93A881B9810E94070C0895C2
:101642000E940B0CE0911405F09115050895F80124
:101652000F5F1F4F04900895E0911405F091150556
:101662003196E4910895F0E0EA0FFB1F8F0108958F
:10167200EA93E0E0EA93E0E0F0E0FA93EA93A9E08B
:101682000C94C503AE81AF5FAE83A150E091180503
:10169200AE1708953A93AA850C94D306A985BA8504
:1016A200EA0FFB1FE987FA870895E985FA85EA1BA5
:1016B200FB0BE987FA870895F0E0AE1BBF0B9D0193
:1016C200A989BB270895F0E0EA0FFB1FAF01E88567
:1016D200E178E1380895EA1BFB0B0F01DF01EB858E
:1016E200FC85AE17BF070895E985FA85E015F10577
:1016F20008950A93A22F0C94CE050A93A22FA2500A
:101702000E947003AE2FEE81EA170895EB85FC85E7
:10171200AE17BF070895E985FA85EA17FB07089512
:101722000A93A42F0E94CE05AF81A23008950A9396
:10173200A42FAE5F0E947003AE2FEE81EA170895C8
:10174200EA93A22F0E947003AE2FEE81EA1708954A
:10175200EA93A42F0E947003AE2FEE81EA17089538
:10176200E985EA93E985EA930895109639F080EDC8
:1017720097E00197F1F7A8951197C9F70895F195A8
:10178200E195F0400895EE230E2EEA2F19F0EE0FA8
:101792000A94E9F70895EE230E2EEA2F19F0E69542
:1017A2000A94E9F70895EE0FFF1FEE0FFF1F089549
:1017B200F595E795F595E7950895FA9FF02DEB9F3E
:1017C200F00DEA9FE02DF10D0895ED91FC91119736
:1017D2000895E199FECFFF93FFB7F894AEBBBFBB6C
:1017E200E09AEDB3FFBFFF910895E19B02C0A89577
:1017F200FCCF9FB7F894AEBBBFBBE09A8DB3E8179E
:1018020019F0EDBBE29AE19A9FBF089500240A16EF
:101812000B0608955A934A933A932A931A930A937A
:1018220008955D814C813B812A8119810881089547
:00000001FF
