:0E0000000C9452000C9400000C9400000C9420
:10000E0000000C9400000C9400000C9400000C9462
:10001E0000000C9400000C9400000C9400000C9452
:10002E0000000C94B1000C9400000C9400000C9491
:10003E0000000C9400000C9400000C9400000C9432
:10004E0000000C9400000C9400000C9400000C9422
:10005E0000000C9400000C9400000C9400000C9412
:10006E0000000C9400000C9400000C9400000C9402
:10007E0000000C9400000C9400000C94000008008A
:10008E000800091E0C000F00010002058C0007007D
:10009E0003058E000000F894EE27ECBBF1E0F5BFEF
:1000AE00E5BFE0936C008DE0A2E0BB27ED938A954F
:1000BE00E9F780E090E1A0E0B1E0ED930197E9F778
:1000CE00E6E9F0E085919591009761F0A591B591E3
:1000DE0005901590BF01F00105900D920197E1F783
:1000EE00FB01F0CF8BBFEFEFEDBFE0E1EEBFC0E065
:1000FE00D5E00C94DE00E0E0EFBDEDE0EEBDE8E013
:10010E00FDE3FBBDEABDE7B7E061E7BF0895C09A26
:10011E00A8EBBBE00E94F500C0980895AA931A932D
:10012E0010E0143098F453D0AE0FBF1FAC91EA819B
:10013E00EA1739F44CD0EA0FFB1FA181E981EA17C7
:10014E0009F002C0E1E003C01F5FEBCFE0E01881D1
:10015E0023960895AA93EA93EFB7EA93E0910005E8
:10016E00EF5FE0930005A0910005AC33D8F0E0E01E
:10017E00E0930005E0910105EF5FE0930105A0918A
:10018E000105AC3378F0E0E0E0930105E091020563
:10019E00EF5FE0930205A0910205A83118F0E0E0B0
:1001AE00E0930205E991EFBFE991A9911895F894B2
:1001BE00B89AC098A0DF7894E0910205EA93A091D6
:1001CE000105ACDFE03009F0A2DFF6CFFFCFE12F63
:1001DE00A3E0B5E0F0E0EE0FFF1F0895109639F0A2
:1001EE0080ED97E00197F1F7A8951197C9F708955B
:00000001FF
