:020000000C945E
:10000200B5000C9400000C9400000C9400000C94B9
:1000120000000C9400000C9400000C9400000C945E
:1000220000000C9400000C9400000C9400000C944E
:1000320000000C9400000C9400000C9400000C943E
:1000420000000C9400000C9400000C9400000C942E
:1000520000000C9400000C9400000C9400000C941E
:1000620000000C9400000C9400000C9400000C940E
:1000720000000C9400000C9400000C9400000C94FE
:1000820000000C9400000C9400001027E8036400A8
:100092000A0001000010000110000100AC00B000D5
:1000A200B400B800BC00C000C40053756E004D6FB0
:1000B2006E00547565005765640054687500467299
:1000C20069005361740045727200202020202020B4
:1000D200202020202020202020200054494D453A75
:1000E20020253032753A253032753A253032750086
:1000F200253032752F253032752F25303275202567
:10010200730056414F204C4F50004B4554205448E9
:100112005543204C4F50004845542047494F2052E8
:10012200412043484F49000080C00E0067059E00F1
:1001320011000005CC0011001105CC0008002205B9
:1001420004010D002A050C011000370519010800F1
:100152004705210110004F05190108005F05210123
:10016200020075052A010000F894EE27ECBBF1E0CD
:10017200F5BFE5BFE0936C008DE0A2E0BB27ED93F5
:100182008A95E9F780E090E1A0E0B1E0ED93019774
:10019200E9F7ECE2F1E085919591009761F0A59184
:1001A200B59105901590BF01F00105900D92019750
:1001B200E1F7FB01F0CF8BBFEFEFEDBFE0E1EEBF68
:1001C200C0E0D5E00C941C01AA93A881A03010F0E5
:1001D200A73008F00CC0E881A7E6B5E0F0E0EE0F2A
:1001E200FF1FAE0FBF1F0E942E060C941205E8ECF3
:1001F200F0E00C941205BA93AA93AD9AA881B98142
:100202000E941C06AD980E944405A0E0B5E00E9441
:10021200D3040C94AA04BA93AA930E944405A1E1C0
:10022200B5E00E94D3040E944405A881B9810E94CE
:10023200D3040C94AA04E097E0E0EABBEBBBE7BB73
:10024200E8BBE0E2E4BBE0E0E5BBE1BBE2BBE2B974
:10025200E3B9E0936100E0936200E0936400E0930D
:100262006500E0BFE3BFE2BFE1BFEFBDEEBDEDBDA4
:10027200ECBDE7BDE6BDEBBDEABDE9BDE8BDE0937F
:100282007900E0937800E5BDE4BDE3BDE0938B0027
:10029200E0938A00E0938900E0938800E093810074
:1002A200E0938000E0938700E0938600E09385006E
:1002B200E0938400E0938300E0938200E7BFE09341
:1002C2007D00E0936A00EABFE9BFEAB9E0939A00D1
:1002D200E0E8E8B9E0E0E0BDE6B9EDB9E09374002A
:1002E2000E94CB05E3E0EA93E1E0EA93A0E00E94FA
:1002F2000104A4E10E94E404E6E0EA93EBE3EA935A
:10030200A7E30E943304E2E0EA93EFE1EA93ECE030
:10031200EA93A8E10E945B04E5E0F0E0FA93EA9335
:10032200E4E0F0E0FA93EA93A7E0B0E00E941A0456
:10033200EBE0F0E0FA93EA93E6E0F0E0FA93EA9376
:10034200E9E0F0E0FA93EA93A8E0B0E00E9440040A
:10035200FE01B096FA93EA93EDEDF0E0FA93EA9398
:10036200E52D0E944905E42D0E944905E72D0E94D2
:1003720049058CE00E94CD0360960E94AC04E0E047
:10038200EA93A0E00E949D04DE0190960E94D304AD
:10039200FE017096FA93EA93E2EFF0E0FA93EA93A1
:1003A200E62D0E944905E92D0E944905E82D0E948B
:1003B2004905AB2D09DF662777270E94360680E1C3
:1003C2000E94CD036496E0E0EA93A1E00E949D04BE
:1003D200DE0150960E94D304E1E0EB1509F462C0FD
:1003E200E7E0E51519F0EDE0E51521F4442011F4FC
:1003F200772009F004C0A2E2B5E00E944F05EBE0CD
:10040200E51519F0E1E1E51529F4E2E3E41511F44B
:10041200772009F004C0AAE2B5E00E944F05E8E0A7
:100422005E1618F0EAE0E51538F4EEE05E1618F014
:10043200E0E1E51508F413C0442011F4772009F037
:1004420004C0A7E3B5E00E945505E2E3E41511F408
:10045200772009F004C0A7E4B5E00E945505EBE05F
:10046200E51519F0E1E1E51531F4442011F47720A6
:1004720009F001C001C004C0AFE4B5E00E944F051D
:10048200E7E0E51519F0EDE0E51539F4E2E3E415EE
:1004920011F4772009F001C001C004C0AFE5B5E056
:1004A2000E944F05A8EEB3E00E941C0635CFFFCF95
:1004B200BA93AA931A930A93AA81BB8112960E94B5
:1004C2002E06309759F1AA81BB8114960E942E06FE
:1004D2008F01309761F00230E0E01E0798F0F801DA
:1004E20031978F01AA81BB811496ED93FC93AA8167
:1004F200BB811296ED91FD913196FE93EE93319769
:10050200AC81A083AA81BB810E942E06FF232AF020
:10051200ED91FD913196FE93EE9306C0AA81BB81C7
:10052200EFEFFFEFED93FC93198108812596089573
:10053200BA93AA9326970E943B0610E0AC85BD852C
:10054200E0E0F0E0ED93FC93EA89FB893196EA8BD7
:10055200FB8B3197E4912E2FE03009F415C1E12F86
:10056200E03039F4253211F411E002C00E945B053B
:100572000AC1E130A9F4253219F40E945B0502C1D7
:1005820012E040E000E02D3211F401E0FCC02B3219
:1005920011F44BE2F8C0203211F440E2F4C002C080
:1005A200E23039F450E013E0203311F40068EBC07C
:1005B20003C0E33009F0E7C0203310F02A3308F01B
:1005C20007C0AAE05A9F502DE22FE0535E0FDBC016
:1005D200E22FE33649F40E946205E889F989A48191
:1005E200AA930E946805CEC0E33741F40E946205D7
:1005F2000E946E050E9414051E2F0AC0E03761F4A6
:100602000E9462050E946E050E9420051E2F08604E
:1006120002600F7730E034C0E43611F0E93611F4AD
:10062200046002C0E53731F4ECE8F0E0EE83FF83CA
:1006320015E00CC0E83511F4086003C0E83709F092
:10064200A1C0E6E9F0E0EE83FF8314E002FF14C0EC
:100652000E9462050E947805AB85AA233AF4EA85D6
:10066200FB850E942A06EA87FB874DE2403011F0A3
:100672001F5F01C00B7F04C00E9462050E947805C3
:1006820000FD11C0151778F407FF08C002FF04C06F
:100692000B7F242F115001C020E301C020E20E94F1
:1006A2005B055150EFCF312F01FF17C03030A1F061
:1006B20003FF06C0EE81FF812591EE83FF8305C013
:1006C200AE81BF812D91AE83BF830E945B05503006
:1006D20009F051503150EACF4BC020E3EE81FF8147
:1006E2000E943206E887F987EE81FF813296EE8317
:1006F200FF83E885F985AA85BB85AE17BF0750F051
:100702002F5FA885B985EA85FB85EA1BFB0BEA8783
:10071200FB87EFCF2A3328F003FF02C0295F01C015
:10072200295D04FD1AC0213320F4A885B9851197EB
:1007320009F409C0531710F000FF01C013C020E2F2
:1007420007FF0BC020E3006102FF07C00B7F4A9343
:100752000E946805503009F051500E945B055030EC
:1007620009F051503150A885B985129708F0B5CFDC
:1007720000FF08C0503031F05150E0E2EA930E948D
:100782006805F8CF10E0E0CEAC85BD850E942E064C
:100792000E94420664960895FF92F82E26970E94C0
:1007A2003D060E948005309719F4EFEFFFEF23C05A
:1007B200DE0116960E9426068D010E948005EE83B8
:1007C200FF83E0E0E887E987DE011A960E942606A9
:1007D2000E942E06FA93EA931A930A93E9E5F2E04D
:1007E200FA93EA93DE011A96A3DE9F01AE81BF81DE
:1007F200E0E0EC93F9010E9444062A96FF900895E6
:10080200AA93EA81E370EA83E981E03019F0EA8190
:10081200E061EA83E881E03019F0EA81E068EA8386
:100822000E948705A7E00E940406AA810E948C0507
:10083200C8C0BA93AA930E948705A0E00E948C05C3
:100842000E9490050E9498050E949F050E94A5059E
:10085200AE2F0E942D05AC81BD81EC930E94DF0575
:1008620026960895AA930E948705A0E00E94AB05F0
:100872000E94B1050E94B7050E948C05A2C0BA93DE
:10088200AA930E948705A3E00E948C050E9490050E
:10089200AE81BF81EC930E949F05AC81BD81EC9338
:1008A2000E949F050E94A5050E9498050E94DF05EF
:1008B20028960895AA930E948705A3E00E94040641
:1008C200AB810E94B7050E94B1050E94AB050E9450
:1008D2008C0524960895AA93E881E07111F0C39AD9
:1008E20001C0C398E881E07211F0C49A01C0C498B3
:1008F200E881E07411F0C59A01C0C598E881E078FA
:1009020011F0C69A01C0C6988DE08A95F1F7C29A95
:100912008DE08A95F1F7C2988DE08A95F1F781C052
:10092200AA93A881D8DFE881E295E883A881D3DF82
:1009320085E88A95F1F775C0AA93E881F0E0EB5853
:10094200FA4FE081A981AE0FEBDFA980E881E09345
:10095200790522960895A2E00E94BD05ACE0E0DF91
:10096200A1E00E94BD05E0E0E0937905AE2E089576
:10097200AA93A881AA3021F0E0917A05AE1660F020
:10098200E0E0EA93A0917905AF5FA0937905D4DF07
:10099200A881AA3009F445C0A394C09AA881C0DFF7
:1009A200C0983FC0BA93AA931A93A981BA81ED91D4
:1009B200A983BA831E2FE03019F0A12FD9DFF5CF1A
:1009C200188123960895AA93BB9ABC9ABD9ABE9A9F
:1009D200BA9AB89AB99AC298C098C198E881E09335
:1009E2007A05E058E0937705E881E054E0937805D2
:1009F200A4E1B0E00E941C060E94C3050E94C30548
:100A02000E94C305A0E267DF88EC90E00197F1F74E
:100A1200A8E286DFA4E084DFA5E882DFA6E080DF2B
:100A22009ADF21960895BA93AA93A991B991EE27D4
:100A3200FF276D91662311F03196FBCF0895BA938B
:100A4200AA93AA27BB27E991F9910590002011F0FA
:100A52001196FBCFFD010895AA93E881E295EF700C
:100A6200AE2FAA0FAA0FEA0FEE0FA991AF70EA0FED
:100A72000895AA93A991EE27AA5012F0E05FFCCF45
:100A8200A65FEA0F0895E0E0EA93A2E00C949D04C9
:100A9200FF27662777270E94360608950E940C01D9
:100AA200A0E1B7E20C94FC000E940C01A8E8B3E1BB
:100AB2000C94FC002A93AD85BE85EF85F8890995D3
:100AC2000895E889F9893497E88BF98B0895AD8503
:100AD200BE85EF85F88909950895A889B989149684
:100AE2000E942E06EE83FF83AE81BF810895A889FE
:100AF200B98914960E942E06EA87FB870895DE01C3
:100B02001C960E9426060E942E0608950E94D00579
:100B1200A0ED0C9404060E9404060C94DF050E94CA
:100B2200D005A1ED0E940406A1E00C94E905AE2FC8
:100B32000E942D05A881B981EC930895A1E00E943D
:100B4200E905AE2F0C942D05AA81BB81EC93A0E0A0
:100B52000C94E9050E940406A8818BDFAE2F08954C
:100B62000E940406A98185DFAE2F08950E94040623
:100B7200AA817FDFAE2F08950E949104A3E0B0E026
:100B82000C941C06A0E30E946C0488EC90E0019790
:100B9200F1F7089590989198889A899815C0899844
:100BA2008898EE270000819B0895809B089504D0C9
:100BB200899A02D0889AE1E06DE007C0899A889A02
:100BC20003D08898F9DF89986BE16A95F1F7089567
:100BD20078E08898F1DF809BFECFEEDF88948199E0
:100BE2000894889AF1DFEE1F7A9599F77A2F772386
:100BF20011F4899801C0899ADFDF8898E5DF889A25
:100C0200DBDF8998D9CF78E0AA0F10F4899801C068
:100C1200899ADADF8898D0DF809BFECFCDDF889A71
:100C22007A9591F78998C8DF8898CEDFE1E08199BB
:100C3200EE27889AC1CF109639F080ED97E00197A0
:100C4200F1F7A8951197C9F708950024AF0DB01DCB
:100C52000895F195E195F0400895ED91FC91119779
:100C620008950590F491E02D08957A936A93FA938A
:100C7200EA9308955A934A933A932A931A930A93BA
:100C820008955D814C813B812A81198108810895F3
:00000001FF
